:020000040800F2
:1000000000A00020859A0008D19A0008D19A000823
:10001000D19A0008D19A0008D19A00080000000087
:10002000000000000000000000000000D19A00085D
:10003000D19A000800000000D19A0008D19A000867
:10004000D19A0008D19A0008D19A0008D19A0008E4
:10005000D19A0008D19A0008D19A0008D19A0008D4
:10006000D19A0008D19A0008D19A0008D19A0008C4
:10007000D19A0008D19A0008D19A0008D19A0008B4
:10008000D19A0008D19A00083D090008D19A0008C9
:10009000D19A0008D19A0008D19A0008D19A000894
:1000A000D19A0008D19A000809080008D19A0008DE
:1000B000D19A0008D19A0008D19A0008D19A000874
:1000C000D19A0008D19A0008D19A0008D19A000864
:1000D000D19A0008D19A0008D19A0008D19A000854
:1000E000D19A0008D19A0008D19A0008D19A000844
:1000F000D19A0008D19A0008D19A0008D19A000834
:10010000000000000000000000000000D19A00087C
:10011000D19A0008D19A0008A108000891060008A9
:10012000D19A0008D19A0008D19A0008D19A000803
:10013000D19A0008D19A00080000000000000000D9
:10014000D19A0008D19A0008D19A00080000000056
:10015000000000000000000000000000000000009F
:100160000000000000000000D19A0008D19A0008A9
:10017000D19A00080000000000000000000000000C
:0801800000000000D19A000804
:1001880010B5054C237833B9044810B10448AFF3CF
:1001980000800121217010BD04090020000000002A
:1001A80050FE000808B5064B1BB106480649AFF3D8
:1001B80000800648016811B1054A02B1904708BDA0
:1001C8000000000050FE0008080900200409002073
:1001D8000000000080B582B000AF4FF000037B60E4
:1001E8004FF000037B600DE04FF48050C4F6000030
:1001F8004FF403414FF0010203F0D6F97B6803F195
:1002080001037B607A6847F2FF03C0F202039A4257
:10021800CCBF00230123DBB2002BE5D14FF0000354
:100228007B600DE04FF48050C4F600004FF40341AA
:100238004FF0000203F0B8F97B6803F101037B601B
:100248007A6847F2FF03C0F202039A42CCBF002348
:100258000123DBB2002BE5D107F10807BD4680BDBD
:1002680080B588B000AF4FF4E1333B604FF0000336
:100278007B614FF00C033B614FF00003FB604FF0D4
:100288000003BB604FF000037B604FF4C063BB61A9
:100298004FF002033B774FF00003BB774FF00303A7
:1002A8007B774FF00003FB774FF480404FF001015C
:1002B80004F072F94FF400304FF0010104F042F9F4
:1002C8004FF090404FF009014FF0070203F092F908
:1002D8004FF090404FF00A014FF0070203F08AF9FF
:1002E80007F118034FF09040194602F0FDFF3B4616
:1002F8004FF46050C4F20100194607F057F94FF463
:100308006050C4F201004FF0010107F079FA00BF14
:100318004FF46050C4F201004FF4800107F0B4FEBE
:100328000346002B14BF00230123DBB2002BEFD1BF
:1003380000BF4FF46050C4F201004FF4001107F001
:10034800A3FE0346002B14BF00230123DBB2002BBE
:10035800EFD107F12007BD4680BD00BF80B586B04C
:1003680000AF4FF400104FF0010104F0EBF84FF428
:100378007F433B614FF001033B754FF00003FB7572
:100388004FF00003BB754FF002037B7507F11003B4
:100398004FF48050C4F60000194602F0A5FF4FF054
:1003A80036033B734FF006037B734FF00003BB73B8
:1003B8004FF00103FB7307F10C03184603F082F9B1
:1003C8004FF010004FF0010104F010F940F28333B0
:1003D8007B6041F61F433B804FF00003BB724FF038
:1003E80000033B814FF000037B803B464FF4805075
:1003F800C4F20000194605F05FF84FF48050C4F2CB
:1004080000004FF001014FF0010206F0AFFC4FF47D
:100418008050C4F200004FF0010105F011FA07F115
:100428001807BD4680BD00BF80B586B000AF4FF449
:1004380000204FF0010104F085F84FF0C0037B6005
:100448004FF002033B724FF00003BB724FF00303FF
:100458007B724FF00103FB7207F104034FF4006055
:10046800C4F60000194602F03FFF4FF40060C4F6DE
:1004780000004FF006014FF0040203F0BBF84FF400
:100488000060C4F600004FF007014FF0040203F0CB
:10049800B1F84FF400504FF0010104F07DF84FF629
:1004A800FF733B614FF00003BB814FF00003BB8239
:1004B8004FF00003FB814FF45050C4F201004FF09D
:1004C80003014FF002024FF0020306F06FFE07F13E
:1004D8000C034FF45050C4F20100194604F0ECFF2D
:1004E8004FF45050C4F201004FF0010105F0A8F993
:1004F8004FF45050C4F201004FF0000105F0B2F87B
:1005080007F11807BD4680BD80B586B000AF4FF42F
:1005180000304FF0010104F015F84FF003037B6041
:100528004FF002033B724FF00003BB724FF003031E
:100538007B724FF00103FB7207F104034FF0904008
:10054800194602F0D1FE4FF090404FF000014FF0F5
:10055800010203F04FF84FF090404FF001014FF0C7
:10056800010203F047F84FF001004FF0010104F0D9
:100578003DF84FF0FF333B614FF00003BB814FF074
:100588000003BB824FF00003FB814FF080404FF027
:1005980003014FF002024FF0020306F007FE07F1D5
:1005A8000C034FF08040194604F086FF4FF080405E
:1005B8004FF0010105F044F94FF080404FF0000181
:1005C80005F050F807F11807BD4680BD80B584B026
:1005D80000AF4FF037033B734FF001037B734FF0CD
:1005E8000003BB734FF00103FB7307F10C031846BC
:1005F80003F068F84FF020004FF0010103F0F6FF18
:1006080040F2DB537B6041F61F433B804FF0000311
:10061800BB724FF000033B814FF000037B803B46E9
:100628004FF4A050C4F20000194604F045FF4FF4FF
:10063800A050C4F200004FF001014FF0010206F093
:1006480095FB4FF4A050C4F200004FF0010105F0F3
:10065800F7F807F11007BD4680BD00BF80B483B02E
:1006680000AF78607B684FF000021A607B684FF03B
:1006780000025A607B684FF000029A6007F10C078D
:10068800BD4680BC704700BF90B587B000AF4FF43F
:10069800A050C4F200004FF0010106F0F3FB40F651
:1006A8002413C2F200031B68FB6040F62413C2F255
:1006B80000035B683B6140F62413C2F200039B68A9
:1006C8007B6140F63013C2F200031B683B6040F6C2
:1006D8003013C2F200035B687B6040F63013C2F24D
:1006E80000039B68BB604FF0804004F0D7FF0346CF
:1006F8001A4640F62413C2F200031A6040F6241387
:10070800C2F200031A68FB68D31A4FF47A7202FB2C
:1007180003F307EE903AB8EEE77ADFED377AC7EEE3
:10072800277A40F62413C2F20003C3ED017A40F69B
:100738002413C2F2000393ED017AD7ED047A37EE61
:10074800677ADFED2E7A27EE277ADFED2B7AC7EE70
:10075800277A40F62413C2F20003C3ED027A3C68FC
:100768004FF45050C4F2010004F098FF03469BB2C6
:100778001BB2E21840F63013C2F200031A604FF4BD
:100788005050C4F201004FF0000104F06BFF40F636
:100798003013C2F200031A683B68D31A4FF47A7216
:1007A80002FB03F307EE903AB8EEE77ADFED127A30
:1007B800C7EE277A40F63013C2F20003C3ED017A80
:1007C80040F63013C2F2000393ED017AD7ED017AB7
:1007D80037EE677ADFED097A27EE277ADFED067ABA
:1007E800C7EE277A40F63013C2F20003C3ED027A4F
:1007F80007F11C07BD4690BD0000164300007A446F
:1008080080B582B000AF4FF49040C4F201004FF0C1
:10081800010106F037FB07F1040318464FF02801E1
:100828004FF0020207F064FE7B794FEA03239AB285
:100838003B7913439BB29BB23B803B881AB240F68C
:100848004013C2F200031B68D31A07EE903AB8EEC1
:10085800E77ADFED0F7A27EE277ADFED0E7A27EEBB
:10086800277AF3EE097A27EE277A40F63C13C2F28C
:100878000003D3ED007A77EE277A40F63C13C2F2F4
:100888000003C3ED007A07F10807BD4680BD00BF2D
:100898001405FA3B6F12833A80B500AF4FF48050CD
:1008A800C4F200004FF0010106F0ECFA40F6201304
:1008B800C2F200031A6840F20003C2F2000353F8C0
:1008C80022309AB240F62013C2F200031B68C3F12B
:1008D800070140F20003C2F2000353F821309BB233
:1008E80013439BB29BB24FF48050C4F600001946E4
:1008F80002F072FE40F62013C2F200031B6803F1F7
:10090800010240F62013C2F200031A6040F62013D9
:10091800C2F200031B68072BD4BF00230123DBB2FC
:10092800002B06D040F62013C2F200034FF000025D
:100938001A6080BD80B500AF4FF0A0404FF00401B1
:1009480002F0A2F90346012B14BF00230123DBB2F6
:10095800002B10D04FF0A04001F07EFE03461A464F
:1009680040F64413C2F200031A604FF0A0404FF063
:10097800040102F0B9F980BD80B582B000AF07F07C
:1009880049FFFFF76DFC40F62410C2F20000FFF7A4
:1009980065FE40F63010C2F20000FFF75FFE41F23C
:1009A800883000F0E1FC41F2883000F0A9FDFFF743
:1009B8003BFDFFF7A9FD00F007F9FFF707FE00F080
:1009C80041F8FFF7CBFC40F64413C2F200034FF0A6
:1009D80000021A604FF000037B60B6EE000A00F0D8
:1009E80039FE40F64413C2F20003D3ED007AB8EEA4
:1009F800E77ADFED137AC7EE277AC7ED017A40F67A
:100A08004413C2F200031A6840F6AC739A4201DC40
:100A18007B6803E045F2EC13C3F678737B6097EDCF
:100A2800010A00F04BFD40F64413C2F200031B68B4
:100A38004FF65840C0F60000194609F003FBCCE712
:100A48000000804580B586B000AF4FF00703BB7447
:100A58004FF00003FB744FF000033B754FF00003A9
:100A68007B754FF00003BB754FF000037B744FF0AC
:100A780008033B7407F11003184607F0A7FB00F0C2
:100A88005FF803461A4640F64013C2F200031A60A4
:100A980040F63C13C2F200034FF000021A604FF018
:100AA8001A033B734FF000037B734FF00003BB73D3
:100AB8004FF00103FB7307F10C03184602F002FE26
:100AC8004FF480204FF0010103F066FD4FF0F90369
:100AD8007B6041F61F433B804FF00003BB724FF031
:100AE80000033B814FF000037B803B464FF490406E
:100AF800C4F20100194604F0DFFC4FF49040C4F240
:100B080001004FF001014FF0010206F02FF94FF4F8
:100B18009040C4F201004FF0010104F091FE07F18A
:100B28001807BD4680BD00BF80B500AF4FF66040D6
:100B3800C0F6000009F086FA4FF00003184680BDA1
:100B480080B584B000AF4FF00003FB604FF00003A6
:100B5800BB604FF00003FB6019E03B4618464FF0BE
:100B680028014FF0020207F0C3FC7B784FEA032309
:100B78009AB23B7813439BB29BB2BB80BB881BB233
:100B8800BA68D318BB60FB6803F10103FB60FB681C
:100B9800F92BCCBF00230123DBB2002BDDD1D7ED2D
:100BA800027AB8EEE77ADFED077AC7EE277AFDEE2C
:100BB800E77A17EE903A9BB21BB2184607F1100776
:100BC800BD4680BD00007A4380B592B000AF4FF4B7
:100BD800887003F047FB4FF080504FF0010103F09D
:100BE800B1FC4FF400304FF0010103F0ABFC4FF0C3
:100BF8000403BB624FF0030387F82C304FF0000367
:100C080087F82F3007F128034FF09040194602F07B
:100C18006BFB07F10403184600F02CFF4FF0A040CF
:100C28004FF0010101F0CEF84FF000037B6407E0BC
:100C38007B6C03F101037B647B6C03F101037B6430
:100C48007A6C47F6FF439A42CCBF00230123DBB2FC
:100C5800002BEDD14FF0A0404FF0000101F056F805
:100C68004FF0A04001F026F800BF4FF0A04001F07F
:100C780063F80346002B0CBF00230123DBB2002BD3
:100C8800F3D14FF000033B634FF000037B634FF059
:100C98000003BB634FF00003FB634FF0000387F8CA
:100CA800403007F130034FF0A040194600F068FFCC
:100CB8004FF400537B604FF00003BB604FF000031C
:100CC800FB604FF000033B614FF000037B614FF086
:100CD8000003BB614FF00003FB614FF0010387F88D
:100CE800203007F104034FF0A040194600F080FEC1
:100CF8004FF0A0404FF003014FF001024FF00703FF
:100D080001F0E0FA4FF0120387F824304FF00203A5
:100D180087F825304FF0000387F826304FF001039D
:100D280087F8273007F12403184602F0CBFC4FF070
:100D3800A0404FF004014FF0010201F0F9FE4FF01E
:100D4800A0404FF0010100F099FF00BF4FF0A04014
:100D58004FF0010101F00AFF0346002B14BF0023E6
:100D68000123DBB2002BF1D14FF0A04001F0F6FBDC
:100D780007F14807BD4680BD80B59CB000AF4FF471
:100D8800987003F06FFA4FF080504FF0010103F0B4
:100D9800D9FB4FF400304FF0010103F0D3FB4FF0C3
:100DA80004033B654FF0030387F854304FF000030A
:100DB80087F8573007F150034FF09040194602F07A
:100DC80093FA07F15003184602F036FB4FF0080378
:100DD8003B654FF0030387F854304FF0000387F862
:100DE800573007F150034FF09040194602F07CFA53
:100DF8004FF001004FF0010103F0A4FB4FF0080091
:100E0800C4F2020001F080FF4FF04003C5F2000376
:100E18007B6240F64813C2F20003BB624FF0000346
:100E2800FB624FF002033B864FF000037B634FF0F9
:100E38008003BB634FF48073FB634FF480633B64B0
:100E48004FF020037B644FF40053BB644FF0000362
:100E5800FB644FF0A0404FF0010100F0B3FF4FF0EA
:100E68000003FB6607E0FB6E03F10103FB66FB6E04
:100E780003F10103FB66FA6E47F6FF439A42CCBFC3
:100E880000230123DBB2002BEDD14FF00003BB653B
:100E98004FF00003FB654FF400433B664FF002033D
:100EA8007B664FF00F0387F8683007F158034FF05F
:100EB800A040194600F064FE4FF400537B604FF0E9
:100EC8000003BB604FF00003FB604FF000033B6181
:100ED8004FF000037B614FF00003BB614FF000034C
:100EE800FB614FF0020387F8203007F104034FF04D
:100EF800A040194600F07CFD4FF0A0404FF00301E0
:100F08004FF001024FF0070301F0DCF94FF0A04069
:100F18004FF004014FF002024FF0070301F0D2F93D
:100F280007F124034FF00800C4F20200194601F04B
:100F3800FBFF4FF00800C4F202004FF0010102F07D
:100F480069F84FF0A0404FF0020101F0EDFC4FF0BE
:100F5800A0404FF0010101F0CBFC4FF0A0404FF052
:100F6800010100F08BFE00BF4FF0A0404FF00101DF
:100F780001F0FCFD0346002B14BF00230123DBB264
:100F8800002BF1D14FF0A04001F0E8FA07F170070B
:100F9800BD4680BD80B582B000AF78604FF00100DB
:100FA8004FF6A041C0F600014FF0040200F07AF9B4
:100FB800FEE700BF80B483B000AF78604FF0FF3326
:100FC800184607F10C07BD4680BC704780B485B051
:100FD80000AFF860B9607A6040F68813C2F2000387
:100FE8004FF00C021A604FF0FF33184607F1140750
:100FF800BD4680BC704700BF80B400AF40F6881380
:10100800C2F200034FF00B021A604FF0FF3318468C
:10101800BD4680BC704700BF80B483B000AF786025
:1010280039603B684FF400525A604FF0000318468D
:1010380007F10C07BD4680BC704700BF80B400AF05
:101048004FF001031846BD4680BC704780B483B09A
:1010580000AF78607B6803F10003022B02D84FF0E1
:10106800010308E040F68813C2F200034FF00902BA
:101078001A604FF00003184607F10C07BD4680BC04
:10108800704700BF80B483B000AF7860396040F625
:101098008813C2F200034FF016021A604FF0FF33B4
:1010A800184607F10C07BD4680BC704780B483B072
:1010B80000AF7860396040F68813C2F200034FF041
:1010C8001F021A604FF0FF33184607F10C07BD46A0
:1010D80080BC704780B485B000AFF860B9607A60B2
:1010E8004FF00003184607F11407BD4680BC70474F
:1010F80090B585B000AF786040F65013C2F2000397
:101108001B68002B08D140F65013C2F2000340F6CA
:101118008C12C2F200021A6040F65013C2F20003A9
:101128001B68FB60EFF308842346BB6040F650134E
:10113800C2F200031A687B68D218BB689A4213D9B6
:101148004FF002004FF6A841C0F600014FF0190217
:1011580000F0A8F840F68813C2F200034FF00C0222
:101168001A604FF0FF330CE040F65013C2F2000350
:101178001A687B68D21840F65013C2F200031A604E
:10118800FB68184607F11407BD4690BD80B489B0C6
:1011980000AFF860B9607A604FF00003BB61FB688C
:1011A800002B28D14FF00003FB611FE000BF4FF474
:1011B8006053C4F20103DB6903F02003002BF6D06F
:1011C8004FF46053C4F201039B8C9BB2FB75BB6860
:1011D800FA7D1A70BB6803F10103BB60BB6903F1B8
:1011E8000103BB61FB6903F10103FB61FA697B68D9
:1011F8009A42DBDB09E040F68813C2F200034FF0A5
:1012080009021A604FF0FF3300E0BB69184607F186
:101218002407BD4680BC704780B483B000AF7860B7
:1012280039603B684FF400525A604FF0000318468B
:1012380007F10C07BD4680BC704700BF80B483B07F
:1012480000AF78604FF0FF33184607F10C07BD4632
:1012580080BC704780B483B000AF786040F68813D4
:10126800C2F200034FF002021A604FF0FF33184633
:1012780007F10C07BD4680BC704700BF80B483B03F
:1012880000AF786040F68813C2F200034FF00A02FC
:101298001A604FF0FF33184607F10C07BD4680BCB3
:1012A800704700BF80B487B000AFF860B9607A605B
:1012B800FB68012B02D0022B22D043E04FF0000341
:1012C8007B6118E000BF4FF46053C4F20103DB698F
:1012D80003F04003002BF6D04FF46053C4F201032F
:1012E800BA6812781A85BB6803F10103BB607B6991
:1012F80003F101037B617A697B689A42E2DB2BE0A8
:101308004FF000037B6118E000BF4FF48843C4F23C
:101318000003DB6903F04003002BF6D04FF4884349
:10132800C4F20003BA6812781A85BB6803F1010396
:10133800BB607B6903F101037B617A697B689A4230
:10134800E2DB09E040F68813C2F200034FF009021D
:101358001A604FF0FF3300E07B68184607F11C075E
:10136800BD4680BC704700BF80B58EB000AF034655
:10137800FB804FF000037B634FF000033B63F98869
:1013880007F1340207F13003084611461A4600F007
:1013980083F94FF00003FB844FF00003BB854FF047
:1013A800000387F82E303B6B9BB203F1FF339BB2EF
:1013B800BB847B6B9BB203F1FF33BB624FF06003CE
:1013C8003B614FF00103BB8241F6FF73BB614FF0F5
:1013D8000003BB834FF002033B734FF00003BB7362
:1013E8004FF01003BB604FF00103FB734FF0030392
:1013F8007B734FF480204FF0010103F0A3F84FF402
:101408008060C4F600004FF004014FF0020202F0C1
:10141800F1F807F108034FF48060C4F6000019469C
:1014280001F062FF4FF002004FF0010103F0DEF817
:101438004FF48060C4F2000005F086FD07F1240334
:101448004FF48060C4F20000194604F035F807F143
:1014580010034FF48060C4F20000194604F010FA3B
:101468004FF48060C4F200004FF0080104F0BEFEA3
:101478004FF48060C4F200004FF0010104F088F9D5
:101488004FF48060C4F200004FF000014FF00102F9
:1014980005F09EF94FF48060C4F200004FF001019E
:1014A80004F0CEF94FF48060C4F200004FF001015F
:1014B80005F07CFC07F13807BD4680BD80B584B0D7
:1014C80000AF87ED010A4FF48063C4F20003D3ED47
:1014D8000B7AB8EE677AD7ED017A67EE277AFCEED9
:1014E800E77A17EE903AFB81FB894FF48060C4F2EB
:1014F8000000194604F074FD07F11007BD4680BDD1
:1015080080B58EB000AF0346FB804FF000037B63CD
:101518004FF000033B63F98807F1340207F1300309
:10152800084611461A4600F0B7F84FF00003FB844E
:101538004FF00003BB854FF0000387F82E303B6B5C
:101548009BB203F1FF339BB2BB847B6B9BB203F16D
:10155800FF33BB624FF060033B614FF00103BB8276
:1015680041F6FF73BB614FF00003BB834FF00203EA
:101578003B734FF00003BB734FF02003BB604FF089
:101588000103FB734FF003037B734FF480204FF08C
:10159800010102F0D7FF4FF48060C4F600004FF05D
:1015A80005014FF0020202F025F807F108034FF495
:1015B8008060C4F60000194601F096FE4FF0020064
:1015C8004FF0010103F012F84FF48060C4F20000FC
:1015D80005F0BAFC07F124034FF48060C4F2000060
:1015E800194603F069FF07F110034FF48060C4F255
:1015F8000000194604F0D8F94FF48060C4F20000E6
:101608004FF0080104F00EFE4FF48060C4F20000B1
:101618004FF0010104F0BCF84FF48060C4F2000000
:101628004FF004014FF0010205F0D2F84FF480604A
:10163800C4F200004FF0010104F002F94FF4806099
:10164800C4F200004FF0010105F0B0FB07F13807C4
:10165800BD4680BD80B584B000AF87ED010A4FF468
:101668008063C4F20003D3ED0B7AB8EE677AD7ED46
:10167800017A67EE277AFCEEE77A17EE903AFB815B
:10168800FB894FF48060C4F20000194604F0B6FCF0
:1016980007F11007BD4680BD2DE9F04F91B000AFAE
:1016A800F860B9607A606B461E46D7ED037AF8EEAB
:1016B800E77A9FEDA97AC7EE277AFDEEE77AC7EDBC
:1016C800097A786A07F0CCFB02460B4643EC102BEC
:1016D80008F0FCF953EC102B1046194607F0C0FE31
:1016E80003463B623B6A03F1FF31F9610846024653
:1016F8004FF000034FF0010A4FF0000B12EB0A0203
:1017080043EB0B034FEAD2604FEA431940EA090959
:101718004FEA4218084602464FF000034FF001080E
:101728004FF0000912EB080243EB09034FEAD260BD
:101738004FEA431505434FEA42140B4603F10103F0
:101748004FEA830303F1030303F107034FEAD303CB
:101758004FEAC303ADEB030D6B4603F103034FEAF6
:1017680093034FEA8303BB614FF00103FB634FF020
:1017780001037B614FF00003BB634FF00003BB63C1
:101788000AE0BB6B03F10101BB69BA6B43F8221095
:10179800BB6B03F10103BB63BA6B3B6A9A42ACBFF4
:1017A80000230123DBB2002BEBD138E0BB69FA6BD5
:1017B80053F822307B617B69B3F1FF3F2BD0FB6B81
:1017C80003F10103BB631DE0BB69BA6B53F8223018
:1017D800B3F1FF3F12D0BB69BA6B53F822307A6974
:1017E80093FBF2F2796901FB02F29B1A002B05D1F7
:1017F800BB69BA6B4FF0FF3143F82210BB6B03F1A2
:101808000103BB63BA6B3B6A9A42ACBF0023012356
:10181800DBB2002BD8D1FB6B03F10103FB63FA6B3E
:101828003B6A9A42ACBF00230123DBB2002BBDD137
:101838004FF00003BB634FF00003BB633EE0BB699E
:10184800BA6B53F82230B3F1FF3F02D0BB6B3B6356
:1018580030E0BB6B7B6324E0BB697A6B53F82230C2
:10186800B3F1FF3F19D03B6B03F10102BB69796B00
:1018780053F82110BB6943F82210BB697A6B4FF00B
:10188800FF3143F822107B6BBB633B6B03F1010311
:101898003B633B6A03F101037B637B6B03F1010349
:1018A8007B637A6B3B6A9A42ACBF00230123DBB2AD
:1018B800002BD1D1BB6B03F10103BB63BA6B3B6A4D
:1018C8009A42ACBF00230123DBB2002BB7D17B6A5D
:1018D800FB624FF00103BB624FF001033B613EE046
:1018E8004FF00103BB632CE0BB69BA6B53F822309D
:1018F8003B613B69B3F1FF3F30D0FB6A3A6993FB28
:10190800F2F2396901FB02F29B1A002B15D1FA6A2F
:101918003B6992FBF3F3FB62BB6A3A6902FB03F390
:10192800BB62FA6A4FF6FF739A4206DCBB68FA6A32
:101938001A607B68BA6A1A6019E0BB6B03F101038D
:10194800BB63BA6B3B6A9A42ACBF00230123DBB28C
:10195800002BC9D103E000BF4054894C00BFFB6A8B
:10196800012BD4BF00230123DBB2002BB8D1B5462D
:1019780007F14407BD46BDE8F08F00BF80B582B0CF
:1019880000AF78607B68B3F1A04F06D07A684FF457
:101998008073C5F200039A420CD14FF080504FF08B
:1019A800010102F04DFE4FF080504FF0000102F0AF
:1019B80047FE19E07A684FF48063C5F200039A4243
:1019C80006D07A684FF4A063C5F200039A420BD19F
:1019D8004FF000504FF0010102F032FE4FF000507E
:1019E8004FF0000102F02CFE07F10807BD4680BD4C
:1019F80080B485B000AF786039604FF00003FB60B9
:101A08007B68DB68FB60FA684CF20703CFF6FF538C
:101A18001340FB603B681A683B685B681A433B6885
:101A28009B681A433B68DB681A433B681B691A4387
:101A38003B685B691A433B689B691343FA68134325
:101A4800FB607B68FA68DA607B681B6BFB60FB688D
:101A580023F00F03FB603B681B7F03F1FF33FA6839
:101A68001343FB607B68FA681A6307F11407BD46E5
:101A780080BC704780B483B000AF78607B684FF05B
:101A880000021A607B684FF000025A607B684FF0D2
:101A980000029A607B684FF00002DA607B684FF0C2
:101AA80000021A617B684FF000025A617B684FF0B0
:101AB80000029A617B684FF001021A7707F10C0760
:101AC800BD4680BC704700BF80B485B000AF786069
:101AD80039604FF00003FB607B68DB6CFB604FF004
:101AE8000003FB603B681B7A03F1FF331A463B682F
:101AF8001B681A433B685B681A433B68DB684FEA1C
:101B080003231A433B681B694FEA83331A433B6834
:101B18005B694FEA03531A433B689B694FEA836347
:101B28001343FB607B68FA68DA6407F11407BD4663
:101B380080BC704780B483B000AF78607B684FF09A
:101B480000021A607B684FF000025A607B684FF011
:101B580001021A727B684FF00102DA607B684FF06D
:101B680001021A617B684FF001025A617B684FF0ED
:101B780001029A6107F10C07BD4680BC704700BF9F
:101B880080B485B000AF786039604FF00003FB6027
:101B98007B68B3F1A04F06D07A684FF48073C5F222
:101BA80000039A420DD14FF44073C5F200039B68BD
:101BB800FB60FA684FF48753CFF6FC731340FB6061
:101BC8000CE04FF4E063C5F200039B68FB60FA6821
:101BD8004FF48753CFF6FC731340FB603B681A68D9
:101BE8003B685B681A433B689B681A433B68DB6841
:101BF8004FEA03331A433B681B7C4FEA0323134322
:101C0800FA681343FB607B68B3F1A04F06D07A688B
:101C18004FF48073C5F200039A4206D14FF4407323
:101C2800C5F20003FA689A6005E04FF4E063C5F274
:101C38000003FA689A6007F11407BD4680BC704734
:101C480080B483B000AF78607B684FF000021A6000
:101C58007B684FF000025A607B684FF000029A6080
:101C68007B684FF00002DA607B684FF000021A745C
:101C780007F10C07BD4680BC704700BF80B483B035
:101C880000AF78600B46FB70FB78002B06D07B68B2
:101C98009B6843F001027B689A6005E07B689B685B
:101CA80043F002027B689A6007F10C07BD4680BCCE
:101CB800704700BF80B483B000AF78607B689B68D2
:101CC80043F000427B689A6007F10C07BD4680BC70
:101CD800704700BF80B483B000AF78607B68D3F8EA
:101CE800B430184607F10C07BD4680BC704700BFEA
:101CF80080B483B000AF786039607B683A68C3F815
:101D0800B42007F10C07BD4680BC704780B483B08F
:101D180000AF786039607B689B6823F080427B68FD
:101D28009A607B689A683B681A437B689A6007F1F7
:101D38000C07BD4680BC704780B485B000AF7860A2
:101D48004FF00003FB737B689B68002B03DA4FF0AE
:101D58000103FB7302E04FF00003FB73FB7B1846A3
:101D680007F11407BD4680BC704700BF80B483B03C
:101D780000AF78607B689B6843F002027B689A60DA
:101D880007F10C07BD4680BC704700BF80B485B022
:101D980000AF78604FF00003FB737B689B6803F02B
:101DA8000203002B03D04FF00103FB7302E04FF056
:101DB8000003FB73FB7B184607F11407BD4680BC84
:101DC800704700BF80B483B000AF78600B46FB70EB
:101DD8007B689B6823F040527B689A60FB78002BF5
:101DE80006D07B689B6843F080527B689A6005E068
:101DF8007B689B6843F000527B689A6007F10C0788
:101E0800BD4680BC704700BF80B483B000AF786027
:101E180013460A46FA70BB70BB78002B0CD07B685F
:101E2800D3F8B020FB784FF0010101FA03F31A430D
:101E38007B68C3F8B0200DE07B68D3F8B020FB784E
:101E48004FF0010101FA03F36FEA03031A407B68BC
:101E5800C3F8B02007F10C07BD4680BC704700BF2F
:101E680080B483B000AF78600B46FB70FB78002B22
:101E780006D07B68DB6843F400127B68DA6005E013
:101E88007B68DB6823F400127B68DA6007F10C07D3
:101E9800BD4680BC704700BF80B483B000AF786097
:101EA8000B46FB70FB78002B06D07B68DB6843F49D
:101EB80080427B68DA6005E07B68DB6823F4804257
:101EC8007B68DA6007F10C07BD4680BC704700BF2D
:101ED80080B485B000AF786039604FF00003FB60D4
:101EE8007B68DB68FB60FB6823F0E073FB60FA68E3
:101EF8003B681343FB607B68FA68DA6007F11407F4
:101F0800BD4680BC704700BF80B483B000AF786026
:101F180013460A467A803B807B681B6A23F07F63FE
:101F280023F470237A6813627B681A6A7B884FEA05
:101F380003431A437B681A627B681B6A23F47F6336
:101F480023F00F037A6813627B681A6A3B881A4386
:101F58007B681A6207F10C07BD4680BC704700BF5A
:101F680080B483B000AF786013460A46FA70BB703D
:101F78007B685B6A23F47F027B685A627B685A6AD3
:101F8800FB784FEA03431A437B685A627B685B6AB3
:101F980023F0FF027B685A627B685A6ABB781A434F
:101FA8007B685A6207F10C07BD4680BC704700BFCA
:101FB80080B483B000AF786013460A46FA70BB70ED
:101FC8007B689B6A23F47F027B689A627B689A6AC3
:101FD800FB784FEA03431A437B689A627B689B6AE3
:101FE80023F0FF027B689A627B689A6ABB781A437F
:101FF8007B689A6207F10C07BD4680BC704700BF3A
:1020080080B485B000AF78600B46FB704FF00003DA
:10201800FB607B68DB68FB60FB6823F0F843FB60D0
:10202800FB784FEA8363FA681343FB607B68FA68BE
:10203800DA6007F11407BD4680BC704780B485B0EC
:1020480000AF78600B46FB704FF00003FB607B68C5
:10205800D3F8A030FB60FA684FF00103CFF6F873AD
:102068001340FB60FB784FF0010202FA03F3FA68B1
:102078001343FB607B68D3F8A020FB681A437B6896
:10208800C3F8A02007F11407BD4680BC704700BF05
:1020980080B485B000AF78600B46FB704FF000034A
:1020A800FB607B68D3F8A430FB60FA684FF001034B
:1020B800CFF6F8731340FB60FB784FF0010202FA89
:1020C80003F3FA681343FB607B68D3F8A420FB682A
:1020D8001A437B68C3F8A42007F11407BD4680BCE7
:1020E800704700BF80B483B000AF78600B46FB70C8
:1020F8007B68B3F1A04F06D07A684FF48073C5F2BD
:1021080000039A421CD1FB78002B0CD04FF440738B
:10211800C5F200034FF44072C5F20002926842F41F
:1021280000029A6028E04FF44073C5F200034FF4B0
:102138004072C5F20002926822F400029A601BE025
:10214800FB78002B0CD04FF4E063C5F200034FF48A
:10215800E062C5F20002926842F400029A600BE065
:102168004FF4E063C5F200034FF4E062C5F20002E9
:10217800926822F400029A6007F10C07BD4680BC01
:10218800704700BF80B483B000AF78600B46FB7027
:102198007B68B3F1A04F06D07A684FF48073C5F21C
:1021A80000039A421CD1FB78002B0CD04FF44073EB
:1021B800C5F200034FF44072C5F20002926842F47F
:1021C80080029A6028E04FF44073C5F200034FF490
:1021D8004072C5F20002926822F480029A601BE005
:1021E800FB78002B0CD04FF4E063C5F200034FF4EA
:1021F800E062C5F20002926842F480029A600BE045
:102208004FF4E063C5F200034FF4E062C5F2000248
:10221800926822F480029A6007F10C07BD4680BCE0
:10222800704700BF80B483B000AF78600B46FB7086
:102238007B68B3F1A04F06D07A684FF48073C5F27B
:1022480000039A421CD1FB78002B0CD04FF440734A
:10225800C5F200034FF44072C5F20002926842F0E2
:1022680080729A6028E04FF44073C5F200034FF47F
:102278004072C5F20002926822F080729A601BE0F8
:10228800FB78002B0CD04FF4E063C5F200034FF449
:10229800E062C5F20002926842F080729A600BE038
:1022A8004FF4E063C5F200034FF4E062C5F20002A8
:1022B800926822F080729A6007F10C07BD4680BCD4
:1022C800704700BF80B485B000AF7860F970BA700D
:1022D8007B704FF00003FB604FF00003BB60BB78DE
:1022E800042B27D87B681B6BFB60BA7813464FEA30
:1022F80043039B184FEA43034FF01F0202FA03F30C
:10230800BB60BB686FEA0303FA681340FB60F978A7
:10231800BA7813464FEA43039B184FEA430301FA7E
:1023280003F3BB60FA68BB681343FB607B68FA6819
:102338001A6388E0BB78092B2BD87B685B6BFB6042
:10234800BA7813464FEA43039B184FEA4303A3F1B5
:102358001E034FF01F0202FA03F3BB60BB686FEA6B
:102368000303FA681340FB60F978BA7813464FEA1A
:1023780043039B184FEA4303A3F11E0301FA03F337
:10238800BB60FA68BB681343FB607B68FA685A63F2
:1023980059E0BB780E2B2BD87B689B6BFB60BA7817
:1023A80013464FEA43039B184FEA4303A3F13C0348
:1023B8004FF01F0202FA03F3BB60BB686FEA030326
:1023C800FA681340FB60F978BA7813464FEA43037A
:1023D8009B184FEA4303A3F13C0301FA03F3BB60E4
:1023E800FA68BB681343FB607B68FA689A632AE063
:1023F8007B68DB6BFB60BA7813464FEA43039B1894
:102408004FEA4303A3F15A034FF01F0202FA03F302
:10241800BB60BB686FEA0303FA681340FB60F97896
:10242800BA7813464FEA43039B184FEA4303A3F1D4
:102438005A0301FA03F3BB60FA68BB681343FB60F5
:102448007B68FA68DA63FB78092B27D97B689B6974
:10245800FB60FA7813464FEA43039B18A3F11E0367
:102468004FF0070202FA03F3BB607B689A69BB6806
:102478006FEA03031A407B689A617B6899697878E8
:10248800FA7813464FEA43039B18A3F11E0300FA98
:1024980003F341EA03027B689A6124E07B685B6985
:1024A800FB60FB7803F1FF3213464FEA43039B18A6
:1024B8004FF0380202FA03F3BB607B685A69BB68C5
:1024C8006FEA03031A407B685A617B685969787818
:1024D800FA7813464FEA43039B1800FA03F341EADC
:1024E80003027B685A6107F11407BD4680BC704738
:1024F80080B483B000AF78600B46FB707B681B6BC1
:1025080023F00F027B681A637B681A6BFB7803F170
:10251800FF331A437B681A6307F10C07BD4680BC7A
:10252800704700BF80B483B000AF786013460A4696
:102538007A803B807B68DB6823F47C627B68DA60A6
:102548007B68DA6839887B880B439BB21A437B68BF
:10255800DA6007F10C07BD4680BC704780B483B0D1
:1025680000AF78607B689B6843F004027B689A60E0
:1025780007F10C07BD4680BC704700BF80B485B02A
:1025880000AF78604FF00003FB737B689B6803F033
:102598000403002B03D04FF00103FB7302E04FF05C
:1025A8000003FB73FB7B184607F11407BD4680BC8C
:1025B800704700BF80B483B000AF78607B689B68C9
:1025C80043F010027B689A6007F10C07BD4680BC97
:1025D800704700BF80B485B000AF78600B46FB70D1
:1025E8004FF00003FB604FF00003BB607B68DB68C3
:1025F800FB60FB6823F46023FB60FB7803F1FF3387
:10260800BB60BB684FEA4343FA681343FB607B68CF
:10261800FA68DA6007F11407BD4680BC704700BF4E
:1026280080B483B000AF78600B46FB70FB78002B5A
:1026380006D07B68DB6843F480327B68DA6005E0AB
:102648007B68DB6823F480327B68DA6007F10C076B
:10265800BD4680BC704700BF80B483B000AF7860CF
:102668007B681B6C9BB2184607F10C07BD4680BC03
:10267800704700BF80B485B000AF78604FF00003AA
:10268800FB607B68B3F1A04F06D07A684FF4807383
:10269800C5F200039A4206D14FF44073C5F2000315
:1026A800DB68FB6005E04FF4E063C5F20003DB681C
:1026B800FB60FB68184607F11407BD4680BC7047ED
:1026C80080B483B000AF786013460A46FA703B8046
:1026D8007B681B6E23F0F8427B681A667B681A6E6B
:1026E800FB784FEA83631A437B681A667B681B6E24
:1026F80023F47F6323F00F037A6813667B681A6EEE
:102708003B881A437B681A6607F10C07BD4680BCF4
:10271800704700BF80B483B000AF786013460A46A4
:10272800FA703B807B685B6E23F0F8427B685A66E0
:102738007B685A6EFB784FEA83631A437B685A6654
:102748007B685B6E23F47F6323F00F037A6853661C
:102758007B685A6E3B881A437B685A6607F10C07F8
:10276800BD4680BC704700BF80B483B000AF7860BE
:1027780013460A46FA703B807B689B6E23F0F8424A
:102788007B689A667B689A6EFB784FEA83631A4384
:102798007B689A667B689B6E23F47F6323F00F0344
:1027A8007A6893667B689A6E3B881A437B689A6658
:1027B80007F10C07BD4680BC704700BF80B483B0EA
:1027C80000AF786013460A46FA703B807B68DB6E80
:1027D80023F0F8427B68DA667B68DA6EFB784FEAAA
:1027E80083631A437B68DA667B68DB6E23F47F6356
:1027F80023F00F037A68D3667B68DA6E3B881A4346
:102808007B68DA6607F10C07BD4680BC704700BFDD
:1028180080B483B000AF78600B46FB70FB78002B68
:1028280006D07B681B6E43F000427B681A6605E0A1
:102838007B681B6E23F000427B681A6607F10C0761
:10284800BD4680BC704700BF80B483B000AF7860DD
:102858000B46FB70FB78002B06D07B685B6E43F061
:1028680000427B685A6605E07B685B6E23F0004295
:102878007B685A6607F10C07BD4680BC704700BFED
:1028880080B483B000AF78600B46FB70FB78002BF8
:1028980006D07B689B6E43F000427B689A6605E031
:1028A8007B689B6E23F000427B689A6607F10C07F1
:1028B800BD4680BC704700BF80B483B000AF78606D
:1028C8000B46FB70FB78002B06D07B68DB6E43F071
:1028D80000427B68DA6605E07B68DB6E23F0004225
:1028E8007B68DA6607F10C07BD4680BC704700BFFD
:1028F80080B483B000AF78600B46FB70FB78002B88
:1029080006D07B68DB6843F001027B68DA6005E08B
:102918007B68DB6823F001027B68DA6007F10C074B
:10292800BD4680BC704700BF80B483B000AF7860FC
:1029380039607B68DB6823F002027B68DA607B68B9
:10294800DA683B681A437B68DA6007F10C07BD4612
:1029580080BC704780B485B000AF786013460A46E3
:10296800FA70BB704FF00003FB60FB78092B24D989
:10297800FA7813464FEA43039B18A3F11E034FF05E
:10298800070202FA03F3FB607B689A69FB686FEA47
:1029980003031A407B689A617B689969B878FA786A
:1029A80013464FEA43039B18A3F11E0300FA03F3EF
:1029B80041EA03027B689A6121E0FB7803F1FF3268
:1029C80013464FEA43039B184FF0380202FA03F309
:1029D800FB607B685A69FB686FEA03031A407B68EF
:1029E8005A617B685969B878FA7813464FEA430305
:1029F8009B1800FA03F341EA03027B685A6107F166
:102A08001407BD4680BC704780B483B000AF7860BF
:102A18007B689B6843F008027B689A6007F10C07A3
:102A2800BD4680BC704700BF80B483B000AF7860FB
:102A38007B689B6843F020027B689A6007F10C076B
:102A4800BD4680BC704700BF80B485B000AF7860D9
:102A58004FF00003FB737B689B6803F00803002BAF
:102A680003D04FF00103FB7302E04FF00003FB7348
:102A7800FB7B184607F11407BD4680BC704700BFB2
:102A880080B483B000AF78600B46FB70FB78002BF6
:102A980006D07B68DB6843F000727B68DA6005E08B
:102AA8007B68DB6823F000727B68DA6007F10C074B
:102AB800BD4680BC704700BF80B483B000AF78606B
:102AC8000B46FB70FB78002B06D07B68DB6843F471
:102AD80080127B68DA6005E07B68DB6823F480128B
:102AE8007B68DA6007F10C07BD4680BC704700BF01
:102AF80080B485B000AF78600B46FB704FF00003E0
:102B0800FB607B68FB60FB7803F1FF334FEA8303CC
:102B18001A46FB68D31803F18003FB60FB681B6847
:102B28009BB2184607F11407BD4680BC704700BF2A
:102B380080B485B000AFF860B9601346FB71FB79CB
:102B4800002B06D0FB685A68BB681A43FB685A60BA
:102B580007E0FB685A68BB686FEA03031A40FB6822
:102B68005A6007F11407BD4680BC704780B485B031
:102B780000AF786039604FF00003FB737B681A6818
:102B88003B681340002B03D04FF00103FB7302E0B6
:102B98004FF00003FB73FB7B184607F11407BD4693
:102BA80080BC704780B483B000AF786039607B68C0
:102BB8003A681A6007F10C07BD4680BC704700BF31
:102BC80080B485B000AF786039604FF00003FB60D7
:102BD8004FF00003FB727B68B3F1A04F06D07A6810
:102BE8004FF48073C5F200039A4206D14FF4407344
:102BF800C5F200031B68FB6005E04FF4E063C5F213
:102C080000031B68FB60FA683B681340002B03D085
:102C18004FF00103FB7202E04FF00003FB72FB7AF6
:102C2800184607F11407BD4680BC704780B483B0CE
:102C380000AF786039607B68B3F1A04F06D07A683E
:102C48004FF48073C5F200039A420CD14FF44073DD
:102C5800C5F200034FF44072C5F2000211683A68E9
:102C68000A431A600BE04FF4E063C5F200034FF427
:102C7800E062C5F2000211683A680A431A6007F177
:102C88000C07BD4680BC704780B485B000AF786043
:102C980039604FF00003FB734FF00003BB814FF026
:102CA80000037B817B681B689AB23B689BB2134028
:102CB800BB817B685B689AB23B689BB213407B819F
:102CC800BB89002B06D07B89002B03D04FF0010372
:102CD800FB7302E04FF00003FB73FB7B184607F120
:102CE8001407BD4680BC704780B483B000AF7860DD
:102CF80039607B681A683B681A437B681A6007F179
:102D08000C07BD4680BC704780B483B000AF7860C4
:102D18007B681A684FF6FE7313407A6813607B6805
:102D28004FF000021A607B684FF000025A607B681F
:102D38004FF000029A607B684FF00002DA607A6810
:102D48004FF00803C4F202039A420CD14FF000037B
:102D5800C4F202034FF00002C4F20202526842F0C9
:102D68000F025A60DAE07A684FF01C03C4F20203DB
:102D78009A420CD14FF00003C4F202034FF0000254
:102D8800C4F20202526842F0F0025A60C6E07A6861
:102D98004FF03003C4F202039A420CD14FF0000303
:102DA800C4F202034FF00002C4F20202526842F475
:102DB80070625A60B2E07A684FF04403C4F20203CA
:102DC8009A420CD14FF00003C4F202034FF0000204
:102DD800C4F20202526842F470425A609EE07A6875
:102DE8004FF05803C4F202039A420CD14FF000038B
:102DF800C4F202034FF00002C4F20202526842F425
:102E080070225A608AE07A684FF06C03C4F20203B9
:102E18009A420CD14FF00003C4F202034FF00002B3
:102E2800C4F20202526842F470025A6076E07A688C
:102E38004FF08003C4F202039A420CD14FF0000312
:102E4800C4F202034FF00002C4F20202526842F0D8
:102E580070625A6062E07A684FF48163C4F20203D8
:102E68009A420CD14FF48063C4F202034FF480629B
:102E7800C4F20202526842F00F025A604EE07A68C9
:102E880040F21C43C4F202039A420CD14FF480630F
:102E9800C4F202034FF48062C4F20202526842F0A4
:102EA800F0025A603AE07A684FF48663C4F202038B
:102EB8009A420CD14FF48063C4F202034FF480624B
:102EC800C4F20202526842F470625A6026E07A68DC
:102ED80040F24443C4F202039A420CD14FF4806397
:102EE800C4F202034FF48062C4F20202526842F450
:102EF80070425A6012E07A684FF48B63C4F202039E
:102F08009A420BD14FF48063C4F202034FF48062FB
:102F1800C4F20202526842F470225A6007F10C07A8
:102F2800BD4680BC704700BF80B485B000AF7860F4
:102F380039604FF00003FB607B681B68FB60FB682F
:102F480023F4FF4323F07003FB603B689A683B68F7
:102F58001B6A1A433B681B691A433B685B691A433F
:102F68003B689B691A433B68DB691A433B685B6AA9
:102F78001A433B689B6A1343FA681343FB607B68F8
:102F8800FA681A603B689B891A467B685A603B68F6
:102F98001A687B689A603B685A687B68DA6007F150
:102FA8001407BD4680BC704780B483B000AF78601A
:102FB8007B684FF000021A607B684FF000025A608D
:102FC8007B684FF000029A607B684FF000029A819C
:102FD8007B684FF000021A617B684FF000025A616B
:102FE8007B684FF000029A617B684FF00002DA615B
:102FF8007B684FF000021A627B684FF000025A6249
:103008007B684FF000029A6207F10C07BD4680BC4E
:10301800704700BF80B483B000AF78600B46FB7088
:10302800FB78002B06D07B681B6843F001027B68A5
:103038001A6006E07B681A684FF6FE7313407A68D8
:10304800136007F10C07BD4680BC704780B483B09D
:1030580000AF78600B467B807A887B685A6007F1FE
:103068000C07BD4680BC704780B483B000AF786061
:103078007B685B689BB2184607F10C07BD4680BCAD
:10308800704700BF80B485B000AFF860B9601346E0
:10309800FB71FB79002B06D0FB681A68BB681A43E2
:1030A800FB681A6007E0FB681A68BB686FEA0303ED
:1030B8001A40FB681A6007F11407BD4680BC7047C8
:1030C80080B485B000AF78604FF00003FB734FF019
:1030D8000003BB607B6803F08053002B06D04FF4DD
:1030E8008063C4F202031B68BB6005E04FF0000375
:1030F800C4F202031B68BB60BA687B681340002BEC
:1031080003D04FF00103FB7302E04FF00003FB73A1
:10311800FB7B184607F11407BD4680BC704700BF0B
:1031280080B483B000AF78607B6803F08053002BD5
:1031380006D04FF48063C4F202037A685A6005E04F
:103148004FF00003C4F202037A685A6007F10C07D3
:10315800BD4680BC704700BF80B485B000AF7860C2
:103168004FF00003FB734FF00003BB607B6803F074
:103178008053002B06D04FF48063C4F202031B680F
:10318800BB6005E04FF00003C4F202031B68BB609C
:10319800BA687B681340002B03D04FF00103FB7320
:1031A80002E04FF00003FB73FB7B184607F114079E
:1031B800BD4680BC704700BF80B483B000AF786064
:1031C8007B6803F08053002B06D04FF48063C4F271
:1031D80002037A685A6005E04FF00003C4F2020364
:1031E8007A685A6007F10C07BD4680BC704700BF7B
:1031F80080B582B000AF78607B68B3F1904F0CD196
:103208004FF400304FF0010101F01AFA4FF400308A
:103218004FF0000101F014FA62E07A684FF480631D
:10322800C4F600039A420CD14FF480204FF00101FC
:1032380001F006FA4FF480204FF0000101F000FA87
:103248004EE07A684FF40063C4F600039A420CD14A
:103258004FF400204FF0010101F0F2F94FF4002083
:103268004FF0000101F0ECF93AE07A684FF440635E
:10327800C4F600039A420CD14FF480104FF00101BC
:1032880001F0DEF94FF480104FF0000101F0D8F999
:1032980026E07A684FF48053C4F600039A420CD1B2
:1032A8004FF400104FF0010101F0CAF94FF400107B
:1032B8004FF0000101F0C4F912E07A684FF4A0530E
:1032C800C4F600039A420BD14FF480004FF001017D
:1032D80001F0B6F94FF480004FF0000101F0B0F9A9
:1032E80007F10807BD4680BD80B487B000AF78609D
:1032F80039604FF000037B614FF000033B614FF0F2
:103308000003FB604FF000037B618CE07B694FF0AA
:10331800010202FA03F33B613B681A683B691340F8
:10332800FB60FA683B699A4279D13B681B79012BAB
:1033380003D03B681B79022B3AD17B689A687B697A
:103348004FEA43034FF0030101FA03F36FEA030363
:103358001A407B689A607B689A683B685B79194673
:103368007B694FEA430301FA03F31A437B689A60C7
:103378007B689B889AB27B699BB24FF0010101FA86
:1033880003F39BB26FEA03039BB213409AB27B68C4
:103398009A807B689B889AB23B689B7919467B69BF
:1033A8009BB201FA03F39BB213439AB27B689A80EB
:1033B8007B681A687B694FEA43034FF0030101FAFF
:1033C80003F36FEA03031A407B681A607B681A6884
:1033D8003B681B7919467B694FEA430301FA03F3FB
:1033E8001A437B681A607B68DA687B699BB24FEA8C
:1033F80043034FF0030101FA03F36FEA03031A4092
:103408007B68DA607B68DA683B68DB7919467B6938
:103418004FEA430301FA03F31A437B68DA607B69D6
:1034280003F101037B617B690F2B7FF66FAF07F117
:103438001C07BD4680BC704780B483B000AF78607D
:103448007B684FF6FF721A607B684FF000021A71B2
:103458007B684FF002025A717B684FF000029A7144
:103468007B684FF00002DA7107F10C07BD4680BC9B
:10347800704700BF80B485B000AF78600B467B8092
:103488004FF48033FB607B88FA681343FB607B68EA
:10349800FA68DA617A887B68DA617B68FA68DA61E7
:1034A8007B68DB69FB607B68DB69FB6007F11407FD
:1034B800BD4680BC704700BF80B485B000AF78605F
:1034C8000B467B804FF00003FB737B681B8A9AB224
:1034D8007B8813409BB2002B03D04FF00103FB7392
:1034E80002E04FF00003FB73FB7B184607F114075B
:1034F800BD4680BC704700BF80B483B000AF786021
:103508007B681B8A9BB2184607F10C07BD4680BC36
:10351800704700BF80B485B000AF78600B467B80F1
:103528004FF00003FB737B689B8A9AB27B88134039
:103538009BB2002B03D04FF00103FB7302E04FF066
:103548000003FB73FB7B184607F11407BD4680BCDC
:10355800704700BF80B483B000AF78607B689B8AF7
:103568009BB2184607F10C07BD4680BC704700BFE8
:1035780080B483B000AF78600B467B807A887B6824
:103588009A6107F10C07BD4680BC704780B483B0D0
:1035980000AF78600B467B807B687A881A8507F1D4
:1035A8000C07BD4680BC704780B483B000AF78601C
:1035B80013460A467A807B707B78002B03D07A8882
:1035C8007B689A6102E07B687A881A8507F10C07A4
:1035D800BD4680BC704700BF80B483B000AF786040
:1035E8000B467B807B687A889A8207F10C07BD4678
:1035F80080BC704780B485B000AF786013460A4637
:103608007A807B704FF00003FB604FF00003BB60D3
:103618007A787B8803F007034FEA830302FA03F3FF
:10362800FB607B884FEAD3039BB21A467B884FEA3C
:10363800D3039BB219467B6801F1080153F82110A6
:103648007B8803F007034FEA83034FF00F0000FA6B
:1036580003F36FEA030319407B6802F1080243F899
:1036680022107B884FEAD3039BB21A467B6802F18B
:10367800080253F82220FB681343BB607B884FEA9B
:10368800D3039BB21A467B6802F10802B96843F873
:10369800221007F11407BD4680BC704780B483B080
:1036A80000AF78604FF46D43CEF200037A6842F0C1
:1036B800BF6242F40032DA6007F10C07BD4680BCF5
:1036C800704700BF80B487B000AF78604FF0000348
:1036D8007B614FF000033B614FF00F03FB607B6899
:1036E800DB78002B47D04FF46D43CEF20003DB6844
:1036F8006FEA030303F4E0634FEA13237B617B69FA
:10370800C3F104033B617B69FA6822FA03F3FB60A7
:103718007B685B781A463B6902FA03F37B617B6836
:103728009B781A46FB6813407A6913437B617B696F
:103738004FEA03137B614FF46143CEF200037A68CA
:10374800127811467A69D2B25B1883F800234FF4D5
:103758006143CEF200037A6812784FEA5212D2B26D
:103768007968097801F01F014FF0010000FA01F1B2
:1037780043F8221014E04FF46143CEF200037A6854
:1037880012784FEA5212D2B27968097801F01F0113
:103798004FF0010000FA01F102F1200243F8221073
:1037A80007F11C07BD4680BC704700BF80B483B0DA
:1037B80000AF786039604FF46D43CEF200033A6889
:1037C80022F0604222F07F0279680A439A6007F18A
:1037D8000C07BD4680BC704780B483B000AF02467A
:1037E8000B46FA71BB71BB79002B0CD04FF46D43BB
:1037F800CEF200034FF46D42CEF200021169FA795D
:103808000A431A610DE04FF46D43CEF200034FF402
:103818006D42CEF200021169FA796FEA02020A409B
:103828001A6107F10C07BD4680BC704780B483B0AD
:1038380000AF78607B68042B0CD14EF21003CEF2F7
:1038480000034EF21002CEF20002126842F00402A7
:103858001A600BE04EF21003CEF200034EF2100293
:10386800CEF20002126822F004021A6007F10C0777
:10387800BD4680BC704700BF80B400AF4FF4805392
:10388800C4F202034FF48052C4F20202126842F0FA
:1038980001021A604FF48052C4F202024FF48053BE
:1038A800C4F2020359684FF44043CFF6FF030B40BC
:1038B80053604FF48053C4F202034FF48052C4F2B1
:1038C8000202126822F0847222F480321A604FF4E5
:1038D8008053C4F202034FF48052C4F20202126809
:1038E80022F480221A604FF48053C4F202034FF48A
:1038F8008052C4F20202526822F4FE025A604FF467
:103908008053C4F202034FF48052C4F20202D26A16
:1039180022F47F5222F03F02DA624FF48052C4F25E
:1039280002024FF48053C4F20203196B4FF6CC43E2
:10393800C0F600730B4013634FF48053C4F20203C4
:103948004FF000029A60BD4680BC704780B483B0D7
:1039580000AF0346FB7141F20203C4F202034FF0C9
:1039680000021A7041F20203C4F20203FA791A70D3
:1039780007F10C07BD4680BC704700BF80B582B018
:1039880000AF4FF000033B604FF00003FB714FF0B6
:103998000003BB714FF0110000F000FF0346BB713C
:1039A8003B6803F101033B603B68B3F5A06F02D0AD
:1039B800BB79002BEED04FF0110000F0EFFE03466C
:1039C800002B03D04FF00103FB7102E04FF000031E
:1039D800FB71FB79184607F10807BD4680BD00BF9B
:1039E80080B485B000AF0346FB714FF00003FB6065
:1039F8004FF48053C4F202031B68FB60FB6823F09A
:103A0800F803FB60FB794FEAC303FA681343FB60D2
:103A18004FF48053C4F20203FA681A6007F11407DE
:103A2800BD4680BC704700BF80B483B000AF03467A
:103A3800FB714FF00003C4F24223FA791A6007F1D0
:103A48000C07BD4680BC704780B483B000AF786077
:103A58004FF48053C4F202034FF48052C4F20202BE
:103A6800126A22F001021A624FF48053C4F2020370
:103A78004FF48052C4F20202126A22F004021A625F
:103A88004FF48053C4F202034FF48052C4F202028E
:103A9800116A7A680A431A6207F10C07BD4680BCAE
:103AA800704700BF80B483B000AF78604FF4805394
:103AB800C4F202034FF48052C4F20202126A22F0E6
:103AC80018021A624FF48053C4F202034FF4805272
:103AD800C4F20202116A7A680A431A6207F10C07F3
:103AE800BD4680BC704700BF80B483B000AF0346BA
:103AF800FB714FF49063C4F24223FA791A6007F11C
:103B08000C07BD4680BC704780B483B000AF7860B6
:103B180039604FF48053C4F202034FF48052C4F268
:103B28000202526822F474125A604FF48053C4F2AD
:103B380002034FF48052C4F20202516878683A686E
:103B480002430A435A6007F10C07BD4680BC704720
:103B580080B483B000AF0346FB714FF06003C4F23A
:103B68004223FA791A6007F10C07BD4680BC7047FA
:103B780080B485B000AF78604FF00003FB604FF46D
:103B88008053C4F20203DB6AFB60FB6823F00F0377
:103B9800FB60FA687B681343FB604FF48053C4F200
:103BA8000203FA68DA6207F11407BD4680BC704761
:103BB80080B483B000AF0346FB714FF04C03C4F2EE
:103BC8004223FA791A6007F10C07BD4680BC70479A
:103BD80080B483B000AF0346FB7141F20703C4F21F
:103BE8000203FA791A7007F10C07BD4680BC7047CA
:103BF80080B485B000AF78604FF00003FB604FF4ED
:103C08008053C4F202035B68FB60FB6823F0030384
:103C1800FB60FA687B681343FB604FF48053C4F27F
:103C28000203FA685A6007F11407BD4680BC704762
:103C380080B400AF4FF48053C4F202035B68DBB278
:103C480003F00C03DBB21846BD4680BC704700BFCA
:103C580080B485B000AF78604FF00003FB604FF48C
:103C68008053C4F202035B68FB60FB6823F0F00337
:103C7800FB60FA687B681343FB604FF48053C4F21F
:103C88000203FA685A6007F11407BD4680BC704702
:103C980080B485B000AF78604FF00003FB604FF44C
:103CA8008053C4F202035B68FB60FB6823F4E063A3
:103CB800FB60FA687B681343FB604FF48053C4F2DF
:103CC8000203FA685A6007F11407BD4680BC7047C2
:103CD80080B485B000AF78604FF00003FB604FF40C
:103CE8008053C4F202035B68FB60FB6823F46053F3
:103CF800FB607B684FEAC303FA681343FB604FF429
:103D08008053C4F20203FA685A6007F11407BD46EB
:103D180080BC704780B48BB000AF78604FF0000370
:103D28003B624FF00003FB614FF00003BB614FF0B3
:103D380000037B614FF000033B614FF000037B629F
:103D48004FF00003FB604FF00003BB604FF480535B
:103D5800C4F202035B6803F00C033B623B6A042B6A
:103D68000AD0082B0FD0002B48D17A684FF4905313
:103D7800C0F27A03136048E07A684FF49053C0F2B7
:103D88007A03136041E04FF48053C4F202035B6886
:103D980003F47013FB614FF48053C4F202035B68B1
:103DA80003F48033BB61FB694FEA934303F10203D9
:103DB800FB61BB69002B08D1FA694FF41063C0F2AC
:103DC8003D0303FB02F37B6214E04FF48053C4F21B
:103DD8000203DB6A03F00F0303F101037B614FF475
:103DE8009053C0F27A037A69B3FBF2F3FA6902FBE3
:103DF80003F37B627B687A6A1A6006E07A684FF49C
:103E08009053C0F27A03136000BF4FF48053C4F29A
:103E180002035B6803F0F0033B623B6A4FEA13134B
:103E28003B6240F22003C2F200033A6A9B181B78F7
:103E3800DBB2BB607B681A68BB6822FA03F27B6856
:103E48005A604FF48053C4F202035B6803F4E063E2
:103E58003B623B6A4FEA13233B6240F22003C2F203
:103E680000033A6A9B181B78DBB23B617B685A688F
:103E78003B6922FA03F27B689A604FF48053C4F2DC
:103E880002035B6803F460533B623B6A4FEAD32347
:103E98003B6240F22003C2F200033A6A9B181B7887
:103EA800DBB2FB607B685A68FB6822FA03F27B6826
:103EB800DA604FF48053C4F20203DB6A03F4F87348
:103EC8003B623B6A4FEA13133B6240F23003C2F293
:103ED80000033A6A33F812309BB23B613B6903F046
:103EE8001003002B06D07A6A3B69B2FBF3F27B68B9
:103EF8001A6103E07B681A687B681A614FF4805383
:103F0800C4F20203DB6A03F478533B623B6A4FEA6C
:103F180053233B6240F23003C2F200033A6A33F89B
:103F280012309BB23B613B6903F01003002B06D0B3
:103F38007A6A3B69B2FBF3F27B685A6103E07B68FB
:103F48001A687B685A614FF48053C4F202031B6BF2
:103F580003F01003002B06D17A684FF49053C0F297
:103F68007A03936103E07B681A687B689A614FF46F
:103F78008053C4F202031B6B03F02003002B06D10D
:103F88007A684FF49053C0F27A03D36103E07B68F8
:103F98001A687B68DA614FF48053C4F202031B6B22
:103FA80003F48073002B0ED07B681A687B6A9A42F0
:103FB80009D1FA68BB689A4205D17B6A4FEA430285
:103FC8007B681A6203E07B68DA687B681A624FF4E0
:103FD8008053C4F202031B6B03F40073002B0ED052
:103FE8007B681A687B6A9A4209D1FA68BB689A4268
:103FF80005D17B6A4FEA43027B685A6203E07B681B
:10400800DA687B685A624FF48053C4F202031B6B70
:1040180003F00303002B04D17B68DA687B689A629B
:104028002AE04FF48053C4F202031B6B03F003032E
:10403800012B04D17B681A687B689A621CE04FF4F4
:104048008053C4F202031B6B03F00303022B04D159
:104058007B684FF400429A620EE04FF48053C4F23A
:1040680002031B6B03F00303032B05D17A684FF49B
:104078009053C0F27A0393624FF48053C4F2020360
:104088001B6B03F44033002B04D17B689A687B6870
:10409800DA622DE04FF48053C4F202031B6B03F481
:1040A8004033B3F5803F04D17B681A687B68DA62D5
:1040B8001EE04FF48053C4F202031B6B03F4403339
:1040C800B3F5003F04D17B684FF40042DA620FE099
:1040D8004FF48053C4F202031B6B03F44033B3F56F
:1040E800403F05D17A684FF49053C0F27A03D36207
:1040F8004FF48053C4F202031B6B03F44023002BDC
:1041080004D17B689A687B681A632DE04FF480536A
:10411800C4F202031B6B03F44023B3F5802F04D1D0
:104128007B681A687B681A631EE04FF48053C4F2F8
:1041380002031B6B03F44023B3F5002F04D17B6803
:104148004FF400421A630FE04FF48053C4F20203A5
:104158001B6B03F44023B3F5402F05D17A684FF465
:104168009053C0F27A0313634FF48053C4F20203EE
:104178001B6B03F44013002B04D17B689A687B689F
:104188005A632DE04FF48053C4F202031B6B03F40F
:104198004013B3F5801F04D17B681A687B685A63A3
:1041A8001EE04FF48053C4F202031B6B03F4401368
:1041B800B3F5001F04D17B684FF400425A630FE047
:1041C8004FF48053C4F202031B6B03F44013B3F59E
:1041D800401F05D17A684FF49053C0F27A035363B5
:1041E8004FF48053C4F202031B6B03F44003002B0B
:1041F80004D17B689A687B689A632DE04FF48053FA
:10420800C4F202031B6B03F44003B3F5800F04D11F
:104218007B681A687B689A631EE04FF48053C4F287
:1042280002031B6B03F44003B3F5000F04D17B6852
:104238004FF400429A630FE04FF48053C4F2020334
:104248001B6B03F44003B3F5400F05D17A684FF4B4
:104258009053C0F27A03936307F12C07BD4680BCE4
:10426800704700BF80B485B000AF78604FF000039E
:10427800FB607B684FEA1373FB60FB68002B0CD074
:104288004FF48053C4F202034FF48052C4F2020286
:10429800D26A22F47852DA620BE04FF48053C4F207
:1042A80002034FF48052C4F20202D26A22F4F87276
:1042B800DA624FF48053C4F202034FF48052C4F21E
:1042C8000202D16A7A680A43DA6207F11407BD4626
:1042D80080BC704780B485B000AF78604FF00003B1
:1042E800FB607B684FEA1373FB60FB68002B0CD004
:1042F8004FF48053C4F202034FF48052C4F2020216
:10430800126B22F020021A630BE04FF48053C4F2C0
:1043180002034FF48052C4F20202126B22F0100220
:104328001A634FF48053C4F202034FF48052C4F26C
:104338000202116B7A680A431A6307F11407BD4633
:1043480080BC704780B485B000AF78604FF0000340
:10435800FB607B684FEA1373FB60FB68002B0CD093
:104368004FF48053C4F202034FF48052C4F20202A5
:10437800126B22F400721A630BE04FF48053C4F2FC
:1043880002034FF48052C4F20202126B22F48072CC
:104398001A634FF48053C4F202034FF48052C4F2FC
:1043A8000202116B7A680A431A6307F11407BD46C3
:1043B80080BC704780B485B000AF78604FF00003D0
:1043C800FB607B684FEA1373FB60FB6803F1FF3304
:1043D800042B4ED801A252F823F000BFF94300087D
:1043E800134400082D4400084744000861440008AD
:1043F8004FF48053C4F202034FF48052C4F2020215
:10440800126B22F003021A6334E04FF48053C4F2B3
:1044180002034FF48052C4F20202126B22F44032BB
:104428001A6327E04FF48053C4F202034FF480521A
:10443800C4F20202126B22F440221A631AE04FF40B
:104448008053C4F202034FF48052C4F20202126B8A
:1044580022F440121A630DE04FF48053C4F20203B1
:104468004FF48052C4F20202126B22F440021A6323
:1044780000E000BF4FF48053C4F202034FF48052AF
:10448800C4F20202116B7A680A431A6307F114072F
:10449800BD4680BC704700BF80B483B000AF786071
:1044A8004FF0D803C4F242237A681A6007F10C0768
:1044B800BD4680BC704700BF80B483B000AF786051
:1044C8004FF48053C4F202034FF48052C4F2020244
:1044D800116A7A680A431A6207F10C07BD4680BC64
:1044E800704700BF80B483B000AF78604FF0DC0342
:1044F800C4F242237A681A6007F10C07BD4680BCF3
:10450800704700BF80B483B000AF0346FB7140F230
:104518003C43C4F24223FA791A6007F10C07BD46FE
:1045280080BC704780B483B000AF0346FB714FF482
:104538008863C4F24223FA791A6007F10C07BD4672
:1045480080BC704780B483B000AF78600B46FB70C6
:10455800FB78002B0CD04FF48053C4F202034FF4C5
:104568008052C4F2020251697A680A435A610DE026
:104578004FF48053C4F202034FF48052C4F2020293
:1045880051697A686FEA02020A405A6107F10C071A
:10459800BD4680BC704700BF80B483B000AF786070
:1045A8000B46FB70FB78002B0CD04FF48053C4F201
:1045B80002034FF48052C4F2020291697A680A43F6
:1045C8009A610DE04FF48053C4F202034FF4805215
:1045D800C4F2020291697A686FEA02020A409A619B
:1045E80007F10C07BD4680BC704700BF80B483B09C
:1045F80000AF78600B46FB70FB78002B0CD04FF4B3
:104608008053C4F202034FF48052C4F20202D1690B
:104618007A680A43DA610DE04FF48053C4F202036A
:104628004FF48052C4F20202D1697A686FEA02023A
:104638000A40DA6107F10C07BD4680BC704700BF2D
:1046480080B483B000AF78600B46FB70FB78002B1A
:104658000CD04FF48053C4F202034FF48052C4F2DA
:104668000202916A7A680A439A620DE04FF4805315
:10467800C4F202034FF48052C4F20202916A7A68CB
:104688006FEA02020A409A6207F10C07BD4680BC35
:10469800704700BF80B483B000AF78600B46FB70F2
:1046A800FB78002B0CD04FF48053C4F202034FF474
:1046B8008052C4F20202D1687A680A43DA600DE0D7
:1046C8004FF48053C4F202034FF48052C4F2020242
:1046D800D1687A686FEA02020A40DA6007F10C07CB
:1046E800BD4680BC704700BF80B483B000AF78601F
:1046F8000B46FB70FB78002B0CD04FF48053C4F2B0
:1047080002034FF48052C4F2020211697A680A4324
:104718001A610DE04FF48053C4F202034FF4805243
:10472800C4F2020211697A686FEA02020A401A6149
:1047380007F10C07BD4680BC704700BF80B483B04A
:1047480000AF02460B46FA71BB71BB79002B0ED045
:1047580041F20903C4F2020341F20902C4F202025F
:104768001278D1B2FA790A43D2B21A7010E041F243
:104778000903C4F2020341F20902C4F202021278E8
:10478800D1B2FA796FEA0202D2B20A40D2B21A70F2
:1047980007F10C07BD4680BC704700BF80B487B0E6
:1047A80000AF0346FB714FF00003FB604FF00003BE
:1047B8007B614FF00003FB74FB794FEA5313DBB2C4
:1047C800FB60FB68002B06D14FF48053C4F2020350
:1047D8001B687B6119E0FB68012B06D14FF48053FD
:1047E800C4F202031B6A7B610FE0FB68042B06D14D
:1047F8004FF48053C4F202035B687B6105E04FF419
:104808008053C4F202035B6A7B61FB7903F01F03E8
:10481800FB60FB687A6922FA03F303F00103002BBB
:1048280003D04FF00103FB7402E04FF00003FB7468
:10483800FB7C184607F11C07BD4680BC704700BFCB
:1048480080B400AF4FF48053C4F202034FF4805297
:10485800C4F20202526A42F080725A62BD4680BCBB
:10486800704700BF80B485B000AF0346FB714FF0BE
:104878000003FB734FF48053C4F202039A68FB7978
:104888001340002B03D04FF00103FB7302E04FF0FD
:104898000003FB73FB7B184607F11407BD4680BC79
:1048A800704700BF80B483B000AF0346FB7141F28C
:1048B8000A03C4F20203FA791A7007F10C07BD461D
:1048C80080BC704780B582B000AF78607A684FF4DA
:1048D8004053C4F201039A420CD14FF480504FF078
:1048E8000101FFF7D7FE4FF480504FF00001FFF7AA
:1048F800D1FE26E07A684FF46053C4F200039A426E
:104908000CD14FF480404FF00101FFF7EDFE4FF45A
:1049180080404FF00001FFF7E7FE12E07A684FF49D
:104928007053C4F200039A420BD14FF400404FF089
:104938000101FFF7D9FE4FF400404FF00001FFF7E7
:10494800D3FE07F10807BD4680BD00BF80B483B021
:1049580000AF78607B684FF000021A807B684FF0E8
:1049680000025A807B684FF4E0629A807B684FF0BF
:104978000002DA807B684FF000021A817B684FF0F2
:1049880000025A817B684FF000029A817B684FF0E1
:104998000002DA817B684FF007021A8207F10C07E0
:1049A800BD4680BC704700BF80B485B000AF78605A
:1049B80039604FF00003FB813B685B88B3F5827F69
:1049C80036D17B681B88FB81FB8903F44153FB814B
:1049D8003B681A883B685B8813439AB23B68D9885E
:1049E8003B681B890B4399B23B6858893B689B8994
:1049F800034398B23B68DB8903439BB20B439BB2EA
:104A080013439AB2FB891343FB817B68FA891A80A6
:104A18007B689B88FB81FB8923F47063FB813B687F
:104A28009A88FB891343FB817B68FA899A8035E071
:104A38007B689B88FB81FB8923F47063FB813B685F
:104A48009A88FB891343FB817B68FA899A807B6883
:104A58001B88FB81FB8903F44153FB813B681A885F
:104A68003B685B8813439AB23B68D9883B681B89CB
:104A78000B4399B23B6858893B689B89034398B2BA
:104A88003B68DB8903439BB20B439BB213439AB247
:104A9800FB891343FB817B68FA891A807B689B8BAF
:104AA8009BB223F400639AB27B689A833B681A8AA4
:104AB8007B681A8207F11407BD4680BC704700BFA7
:104AC80080B483B000AF78607B684FF000021A8032
:104AD8007B684FF000025A807B684FF000029A8092
:104AE8007B684FF00002DA807B684FF002029A6020
:104AF8007B684FF000029A8107F10C07BD4680BC25
:104B0800704700BF80B596B000AF786039604FF04D
:104B18000003A7F84A304FF00203A7F856304FF0C9
:104B28000003A7F854304FF00103A7F852304FF0B4
:104B38000003FB644FF000037B647B689B8B9BB294
:104B480023F47B6323F00F039AB27B689A837B6814
:104B58004FF002021A847B689B8BA7F84A303B68A7
:104B68009B68022B08D14FF00003A7F854304FF090
:104B78000203A7F8563061E03B689B88002B04D1FC
:104B88004FF00103A7F8523003E04FF00203A7F8F3
:104B9800523007F108031846FFF7BCF8BB687B647E
:104BA8003B68DB88B3F5007F13D17B6C4FEA132297
:104BB80013464FEA83039B184FEA43031A463B68A0
:104BC8009B68B2FBF3F39BB203F105039BB2FB6452
:104BD80016E0B7F852304FEA43137A6CB2FBF3F29F
:104BE80013464FEA83039B184FEA43031A463B6870
:104BF8009B68B2FBF3F39BB203F105039BB2FB6422
:104C0800FA6C4CF6CD43CCF6CC43A3FB02134FEA27
:104C1800D303FB64FB6C9BB203F00103A7F8543089
:104C2800B7F85430FA6CD31A4FEA5303A7F8563042
:104C3800B7F854304FEA0323A7F85430B7F8563082
:104C4800012B03D9B7F85630FF2B07D94FF00203D1
:104C5800A7F856304FF00003A7F854303B68DA88BD
:104C6800B7F8543013439AB2B7F8563013439AB290
:104C78007B681A843B681A883B6859883B689B881C
:104C88000B4399B23B689B890B439BB213439AB27F
:104C9800B7F84A3013439BB243F40063A7F84A308D
:104CA8007B68B7F84A209A8307F15807BD4680BD4C
:104CB80080B483B000AF78600B46FB70FB78002BA4
:104CC80008D07B681B889BB243F040039AB27B688C
:104CD8001A8007E07B681B889BB223F040039AB2D6
:104CE8007B681A8007F10C07BD4680BC704700BF7F
:104CF80080B483B000AF78600B46FB70FB78002B64
:104D080008D07B689B889BB243F010039AB27B68FB
:104D18009A8007E07B689B889BB223F010039AB2C5
:104D28007B689A8007F10C07BD4680BC704700BFBE
:104D380080B483B000AF78600B46FB70FB78002B23
:104D480008D07B689B8B9BB243F480639AB27B68E4
:104D58009A8307E07B689B8B9BB223F480639AB2AB
:104D68007B689A8307F10C07BD4680BC704700BF7B
:104D780080B485B000AF78600B467B804FF00003AD
:104D8800FB817B689B88FB81FB8923F47063FB8133
:104D9800FA897B881343FB817B68FA899A8007F13B
:104DA8001407BD4680BC704780B483B000AF7860FC
:104DB8000B467B807B689B889BB223F480539AB216
:104DC8007B689A807B689B889AB27B8813439AB2E7
:104DD8007B689A8007F10C07BD4680BC704700BF0E
:104DE80080B483B000AF78600B467B807B88B3F5D6
:104DF800804F08D17B681B889BB243F480439AB2EA
:104E08007B681A8007E07B681B889BB223F4804389
:104E18009AB27B681A8007F10C07BD4680BC7047C0
:104E280080B483B000AF78600B467B807A884FF6F9
:104E3800FF639A4208D07B681B889BB243F4807357
:104E48009AB27B681A8007E07B681B889BB223F4C0
:104E580080739AB27B681A8007F10C07BD4680BC44
:104E6800704700BF80B485B000AF786039604FF0FC
:104E78000003BB814FF00003FB817B689B8B9BB2D7
:104E880023F47B6323F00F039AB27B689A837B68D1
:104E98004FF002021A847B689B8BBB813B681B889E
:104EA800B3F5007F03D03B681B88002B03D14FF478
:104EB8008073FB810CE03B681B88B3F5407F04D00E
:104EC8003B681B88B3F5807F02D14FF00003FB815C
:104ED8003B685A883B6899883B689B890B439BB21F
:104EE80013439AB2FB8913439AB2BB8913439BB20B
:104EF80043F40063BB817B68BA899A8307F114077E
:104F0800BD4680BC704700BF80B483B000AF7860F6
:104F18000B46FB70FB78002B08D07B689B889BB204
:104F280043F004039AB27B689A8007E07B689B8809
:104F38009BB223F004039AB27B689A8007F10C07AE
:104F4800BD4680BC704700BF80B483B000AF7860B6
:104F58000B46FB70FB78002B08D07B689B889BB2C4
:104F680043F008039AB27B689A8007E07B689B88C5
:104F78009BB223F008039AB27B689A8007F10C076A
:104F8800BD4680BC704700BF80B485B000AF786074
:104F98000B46FB704FF00003FB607B68FB60FB680F
:104FA80003F10C03FB60FB68FA781A7007F1140729
:104FB800BD4680BC704700BF80B483B000AF786046
:104FC8000B467B807B687A889A8107F10C07BD467F
:104FD80080BC704780B485B000AF78604FF00003A4
:104FE800FB607B68FB60FB6803F10C03FB60FB68FC
:104FF8001B78DBB2184607F11407BD4680BC704722
:1050080080B483B000AF78607B689B899BB21846F8
:1050180007F10C07BD4680BC704700BF80B483B061
:1050280000AF78600B467B807B681B889BB223F4BB
:1050380000639AB27B681A807B681B889AB27B8867
:1050480013439AB27B681A8007F10C07BD4680BCEF
:10505800704700BF80B483B000AF78600B46FB7028
:10506800FB78002B08D07B681B889BB243F4005365
:105078009AB27B681A8007E07B681B889BB223F48E
:1050880000539AB27B681A8007F10C07BD4680BCB2
:10509800704700BF80B483B000AF78607B681B881E
:1050A8009BB243F480539AB27B681A8007F10C07CD
:1050B800BD4680BC704700BF80B485B000AF786043
:1050C8000B46FB704FF00003FB81FB78012B03D0EC
:1050D8007B681B8BFB8102E07B689B8AFB81FB89D9
:1050E800184607F11407BD4680BC704780B483B0EA
:1050F80000AF78607B681B8A9BB2184607F10C07E3
:10510800BD4680BC704700BF80B483B000AF7860F4
:1051180013460A467A807B707B78002B08D07B6820
:105128009B889AB27B8813439AB27B689A800AE07C
:105138007B689B889AB27B886FEA03039BB2134013
:105148009AB27B689A8007F10C07BD4680BC70470D
:1051580080B483B000AF78600B467B807B689B8807
:105168009BB223F4C0439AB27B689A807B689B8881
:105178009AB27B8813439AB27B689A8007F10C072E
:10518800BD4680BC704700BF80B485B000AF786072
:1051980013460A46FA70BB704FF00003FB814FF0CC
:1051A8000003BB81FB784FEA1313DBB2FB81FB8959
:1051B8004FF0010202FA03F3BB81BB78002B08D041
:1051C8007B689B889AB2BB8913439AB27B689A80A2
:1051D8000AE07B689B889AB2BB896FEA03039BB29B
:1051E80013409AB27B689A8007F11407BD4680BCC9
:1051F800704700BF80B483B000AF78607B681B89BC
:105208009BB203F4C0539BB2184607F10C07BD4686
:1052180080BC704780B483B000AF78607B681B891E
:105228009BB203F4C0639BB2184607F10C07BD4656
:1052380080BC704780B485B000AF78600B467B8037
:105248004FF00003FB737B681B899AB27B8813407D
:105258009BB2002B03D04FF00103FB7302E04FF029
:105268000003FB73FB7B184607F11407BD4680BC9F
:10527800704700BF80B483B000AF78600B467B8076
:105288007B886FEA03039AB27B681A8107F10C07DF
:10529800BD4680BC704700BF80B485B000AF786061
:1052A8000B46FB704FF00003FB734FF00003BB810C
:1052B8004FF000037B814FF000033B81FB7803F044
:1052C8000F034FF0010202FA03F3BB81FB784FEAA8
:1052D8001313DBB27B817B894FF0010202FA03F3DF
:1052E8007B817B689B889AB27B8913403B817B6872
:1052F8001B899AB2BB8913409BB2002B06D03B890D
:10530800002B03D04FF00103FB7302E04FF00003C2
:10531800FB73FB7B184607F11407BD4680BC70473A
:1053280080B582B000AF78607A684FF43053C4F229
:1053380001039A420CD14FF400604FF00101FFF7CE
:10534800A9F94FF400604FF00001FFF7A3F9AFE0AF
:105358007B68B3F1804F0CD14FF001004FF0010191
:10536800FFF7C2F94FF001004FF00001FFF7BCF959
:105378009EE07A684FF48063C4F200039A420CD12D
:105388004FF002004FF00101FFF7AEF94FF00200B5
:105398004FF00001FFF7A8F98AE07A684FF400633C
:1053A800C4F200039A420CD14FF004004FF00101FF
:1053B800FFF79AF94FF004004FF00001FFF794F956
:1053C80076E07A684FF48053C4F200039A420CD115
:1053D8004FF010004FF00101FFF786F94FF0100071
:1053E8004FF00001FFF780F962E07A684FF4A053AC
:1053F800C4F200039A420CD14FF020004FF0010193
:10540800FFF772F94FF020004FF00001FFF76CF939
:105418004EE07A684FF45053C4F201039A420CD11B
:105428004FF400504FF00101FFF734F94FF40050EA
:105438004FF00001FFF72EF93AE07A684FF4804305
:10544800C4F201039A420CD14FF480304FF00101AD
:10545800FFF720F94FF480304FF00001FFF71AF9F9
:1054680026E07A684FF48843C4F201039A420CD1CB
:105478004FF400304FF00101FFF70CF94FF4003002
:105488004FF00001FFF706F912E07A684FF49043F5
:10549800C4F201039A420BD14FF480204FF001016E
:1054A800FFF7F8F84FF480204FF00001FFF7F2F80B
:1054B80007F10807BD4680BD80B485B000AF7860AD
:1054C80039604FF00003FB817B681B88FB817A6899
:1054D8004FF43053C4F201039A4218D07A684FF45B
:1054E8005053C4F201039A4211D07B68B3F1804F44
:1054F8000DD07A684FF48063C4F200039A4206D054
:105508007A684FF40063C4F200039A4208D1FB8919
:1055180023F07003FB813B685A88FB891343FB81A6
:105528007A684FF48053C4F200039A420FD07A6825
:105538004FF4A053C4F200039A4208D0FB8923F425
:105548004073FB813B681A89FB891343FB817B68A5
:10555800FA891A803B685A687B68DA623B681A885D
:105568007B681A857A684FF43053C4F201039A4273
:105578001BD07A684FF45053C4F201039A4214D0F6
:105588007A684FF48043C4F201039A420DD07A68D6
:105598004FF48843C4F201039A4206D07A684FF464
:1055A8009043C4F201039A4204D13B689B7A1A469D
:1055B8007B681A867B684FF001025A6107F114076D
:1055C800BD4680BC704700BF80B483B000AF786030
:1055D8007B684FF0FF325A607B684FF000021A80F8
:1055E8007B684FF000021A817B684FF000025A80F6
:1055F8007B684FF000029A7207F10C07BD4680BC29
:10560800704700BF80B483B000AF786013460A4685
:105618007A803B807B687A881A853A887B685A61E9
:1056280007F10C07BD4680BC704700BF80B485B049
:1056380000AF78600B467B804FF00003FB817B68EE
:105648001B88FB81FB8923F07003FB81FA897B8827
:105658001343FB817B68FA891A8007F11407BD465A
:1056680080BC704780B483B000AF786039607B68D5
:105678003A685A6207F10C07BD4680BC704700BF04
:1056880080B483B000AF786039607B683A68DA62CA
:1056980007F10C07BD4680BC704700BF80B483B0DB
:1056A80000AF78607B685B6A184607F10C07BD4657
:1056B80080BC704780B483B000AF78607B681B8D76
:1056C8009BB2184607F10C07BD4680BC704700BF67
:1056D80080B483B000AF78600B46FB70FB78002B7A
:1056E80008D07B681B889BB243F002039AB27B68A0
:1056F8001A8007E07B681B889BB223F002039AB2EA
:105708007B681A8007F10C07BD4680BC704700BF54
:1057180080B483B000AF78600B467B807B88002B19
:1057280008D07B681B889BB243F004039AB27B685D
:105738001A8007E07B681B889BB223F004039AB2A7
:105748007B681A8007F10C07BD4680BC704700BF14
:1057580080B483B000AF78600B46FB70FB78002BF9
:1057680008D07B681B889BB243F400639AB27B68BD
:105778001A8007E07B681B889BB223F400639AB207
:105788007B681A8007F10C07BD4680BC704700BFD4
:1057980080B483B000AF78600B46FB70FB78002BB9
:1057A80008D07B681B889BB243F080039AB27B6861
:1057B8001A8007E07B681B889BB223F080039AB2AB
:1057C8007B681A8007F10C07BD4680BC704700BF94
:1057D80080B483B000AF78600B467B807B681B8801
:1057E8009BB223F008039AB27B681A807B681B88F7
:1057F8009AB27B8813439AB27B681A8007F10C0728
:10580800BD4680BC704700BF80B483B000AF7860ED
:105818000B467B807B681B889BB223F440739AB24B
:105828007B681A807B681B889AB27B8813439AB27C
:105838007B681A8007F10C07BD4680BC704700BF23
:1058480080B483B000AF78600B46FB70FB78002B08
:1058580008D07B681B889BB243F001039AB27B682F
:105868001A8007E07B681B889BB223F001039AB279
:105878007B681A8007F10C07BD4680BC704700BFE3
:1058880080B487B000AF786039604FF00003FB60E8
:105898004FF000037B614FF000033B617B681B6A9C
:1058A80023F001027B681A627B681B6A7B617B6854
:1058B8005B683B617B689B69FB60FB6823F4803312
:1058C80023F07003FB60FB6823F00303FB603B6875
:1058D8001B68FA681343FB607B6923F002037B6152
:1058E8003B689B897A6913437B613B689B887A692B
:1058F80013437B617A684FF43053C4F201039A4230
:105908001BD07A684FF45053C4F201039A4214D062
:105918007A684FF48043C4F201039A420DD07A6842
:105928004FF48843C4F201039A4206D07A684FF4D0
:105938009043C4F201039A4223D17B6923F0080300
:105948007B613B68DB897A6913437B617B6923F060
:1059580004037B613B68DB887A6913437B613B699D
:1059680023F480733B613B6923F400733B613B681C
:105978001B8A3A6913433B613B685B8A3A69134364
:105988003B617B683A695A607B68FA689A613B6850
:105998009A687B685A637B687A691A6207F11C0700
:1059A800BD4680BC704700BF80B487B000AF786048
:1059B80039604FF00003FB604FF000037B614FF04C
:1059C80000033B617B681B6A23F010027B681A6244
:1059D8007B681B6A7B617B685B683B617B689B6952
:1059E800FB60FB6823F0807323F4E043FB60FB68F3
:1059F80023F44073FB603B681B684FEA0323FA6893
:105A08001343FB607B6923F020037B613B689B8920
:105A18004FEA03137A6913437B613B689B884FEA1B
:105A280003137A6913437B617A684FF43053C4F2E5
:105A380001039A4206D07A684FF45053C4F2010326
:105A48009A422BD17B6923F080037B613B68DB8919
:105A58004FEA03137A6913437B617B6923F04003A0
:105A68007B613B68DB884FEA03137A6913437B61E8
:105A78003B6923F480633B613B6923F400633B612A
:105A88003B681B8A4FEA83033A6913433B613B68CF
:105A98005B8A4FEA83033A6913433B617B683A693F
:105AA8005A607B68FA689A613B689A687B689A636F
:105AB8007B687A691A6207F11C07BD4680BC70478B
:105AC80080B487B000AF786039604FF00003FB60A6
