S0190000546865736575735F323031335F323031362E73726563DD
S3150800000000A00020A5240008E9240008E924000827
S31508000010E9240008E9240008E92400080000000093
S31508000020000000000000000000000000E9240008AD
S31508000030E924000800000000E9240008E924000873
S31508000040E9240008E9240008E9240008E92400084E
S31508000050E9240008E9240008E9240008E92400083E
S31508000060E9240008E9240008E9240008853700087F
S31508000070E9240008E9240008E9240008E92400081E
S31508000080E9240008E924000855370008E92400088F
S31508000090E9240008E9240008E92400082D380008A6
S315080000A0E9240008E9240008B9350008E92400080D
S315080000B0E9240008E9240008E9240008E9240008DE
S315080000C0E9240008E9240008E9240008E9240008CE
S315080000D0E9240008E9240008E9240008E9240008BE
S315080000E0E9240008E9240008E9240008E9240008AE
S315080000F0E9240008E9240008E9240008B1370008C3
S31508000100000000000000000000000000E9240008CC
S31508000110E9240008E924000881360008493D00085A
S3150800012099370008E9240008E9240008E9240008AA
S31508000130E9240008E9240008000000000000000087
S31508000140E9240008E9240008E92400080000000062
S315080001500000000000000000000000000000000091
S315080001600000000000000000E9240008E924000857
S31508000170E92400080000000000000000000000005C
S30D0800018000000000E924000854
S315080001C010B5054C237833B9044B13B10448AFF383
S315080001D000800123237010BDFC09002000000000E8
S315080001E0D88B0008084B10B51BB108490848AFF36F
S315080001F000800848036803B910BD074B002BFBD0E5
S31508000200BDE81040184700BF00000000000A0020A3
S31508000210D88B0008FC090020000000000000000040
S3150800022001F0FF01102A2BDB10F0070F08D010F899
S31508000230013B013A8B422DD010F0070F42B3F6D19D
S31508000240F0B441EA012141EA014122F007047FF0B6
S3150800025000070023F0E80256083C85EA010586EA0D
S31508000260010685FA47F5A3FA87F586FA47F6A5FA49
S3150800027087F68EB9EED1F0BC01F0FF0102F0070255
S3150800028032B110F8013B013A83EA010313B1F8D100
S315080002900020704701387047002D06BF35460338E1
S315080002A0073815F0010F07D1013015F4807F02BF1A
S315080002B0013015F4C03F0130F0BC0138704700BF6B
S315080002C0844641EA000313F003036DD1403A41D353
S315080002D051F8043B40F8043B51F8043B40F8043B12
S315080002E051F8043B40F8043B51F8043B40F8043B02
S315080002F051F8043B40F8043B51F8043B40F8043BF2
S3150800030051F8043B40F8043B51F8043B40F8043BE1
S3150800031051F8043B40F8043B51F8043B40F8043BD1
S3150800032051F8043B40F8043B51F8043B40F8043BC1
S3150800033051F8043B40F8043B51F8043B40F8043BB1
S3150800034051F8043B40F8043B51F8043B40F8043BA1
S31508000350403ABDD2303211D351F8043B40F8043B41
S3150800036051F8043B40F8043B51F8043B40F8043B81
S3150800037051F8043B40F8043B103AEDD20C3205D351
S3150800038051F8043B40F8043B043AF9D2043208D049
S31508000390D2071CBF11F8013B00F8013B01D30B88BB
S315080003A003806046704700BF082A13D38B078DD099
S315080003B010F003038AD0C3F10403D21ADB071CBF6B
S315080003C011F8013B00F8013B80D331F8023B20F8D5
S315080003D0023B7BE7043AD9D3013A11F8013B00F80E
S315080003E0013BF9D20B7803704B7843708B78837096
S315080003F06046704700000000000000000000000092
S3150800040090F800F06DE9024520F007016FF0000C46
S3150800041010F0070491F820F040F049804FF00004EE
S315080004206FF00700D1E9002391F840F000F10800C9
S3150800043082FA4CF2A4FA8CF283FA4CF3A2FA8CF301
S315080004404BBBD1E9022382FA4CF200F10800A4FA68
S315080004508CF283FA4CF3A2FA8CF3E3B9D1E90423BC
S3150800046082FA4CF200F10800A4FA8CF283FA4CF3F3
S31508000470A2FA8CF37BB9D1E9062301F1200182FAAD
S315080004804CF200F10800A4FA8CF283FA4CF3A2FAB3
S315080004908CF3002BC6D0002A04BF04301A4612BAC1
S315080004A0B2FA82F2FDE8024500EBD2007047D1E9C4
S315080004B0002304F00305C4F100004FEAC50514F053
S315080004C0040F91F840F00CFA05F562EA05021CBF24
S315080004D063EA050362464FF00004A9E781F000418C
S315080004E002E000BF83F0004330B54FEA41044FEA0B
S315080004F0430594EA050F08BF90EA020F1FBF54EAA6
S31508000500000C55EA020C7FEA645C7FEA655C00F041
S31508000510E2804FEA5454D4EB5555B8BF6D420CDD12
S315080005202C4480EA020281EA030382EA000083EA95
S31508000530010180EA020281EA0303362D88BF30BD35
S3150800054011F0004F4FEA01314FF4801C4CEA11318B
S3150800055002D0404261EB410113F0004F4FEA0333EA
S315080005604CEA133302D0524263EB430394EA050F75
S3150800057000F0A780A4F10104D5F1200E0DDB02FAE4
S315080005800EFC22FA05F2801841F1000103FA0EF278
S31508000590801843FA05F359410EE0A5F120050EF13E
S315080005A0200E012A03FA0EFC28BF4CF0020C43FA6F
S315080005B005F3C01851EBE37101F0004507D54FF07C
S315080005C0000EDCF1000C7EEB00006EEB0101B1F5CC
S315080005D0801F1BD3B1F5001F0CD349085FEA300012
S315080005E04FEA3C0C04F101044FEA445212F5800F1D
S315080005F080F09A80BCF1004F08BF5FEA500C50F1BA
S31508000600000041EB045141EA050130BD5FEA4C0C9C
S31508000610404141EB010111F4801FA4F10104E9D125
S3150800062091F0000F04BF01460020B1FA81F308BF1C
S315080006302033A3F10B03B3F120020CDA0C3208DDE8
S3150800064002F1140CC2F10C0201FA0CF021FA02F1C3
S315080006500CE002F11402D8BFC2F1200C01FA02F133
S3150800066020FA0CFCDCBF41EA0C019040E41AA2BF58
S3150800067001EB0451294330BD6FEA04041F3C1CDA20
S315080006800C340EDC04F11404C4F1200220FA04F040
S3150800069001FA02F340EA030021FA04F345EA0301EA
S315080006A030BDC4F10C04C4F1200220FA02F001FAAC
S315080006B004F340EA0300294630BD21FA04F029462E
S315080006C030BD94F0000F83F4801306BF81F48011C7
S315080006D00134013D4EE77FEA645C18BF7FEA655C3A
S315080006E029D094EA050F08BF90EA020F05D054EA0C
S315080006F0000C04BF1946104630BD91EA030F1EBF11
S315080007000021002030BD5FEA545C05D14000494114
S3150800071028BF41F0004130BD14F580043CBF01F507
S31508000720801130BD01F0004545F0FE4141F47001ED
S315080007304FF0000030BD7FEA645C1ABF19461046C8
S315080007407FEA655C1CBF0B46024650EA013406BFC9
S3150800075052EA033591EA030F41F4002130BD00BF88
S3150800076090F0000F04BF0021704730B54FF4806445
S3150800077004F132044FF000054FF0000150E700BFC6
S3150800078090F0000F04BF0021704730B54FF4806425
S3150800079004F1320410F0004548BF40424FF0000112
S315080007A03EE700BF42004FEAE2014FEA31014FEA55
S315080007B002701FBF12F07F4393F07F4F81F06051A4
S315080007C0704792F0000F14BF93F07F4F704730B513
S315080007D04FF4607401F0004521F0004120E700BFA6
S315080007E050EA010208BF704730B54FF000050AE02D
S315080007F050EA010208BF704730B511F0004502D52E
S31508000800404261EB41014FF4806404F132045FEA2F
S31508000810915C3FF4DCAE4FF003025FEADC0C18BFD4
S3150800082003325FEADC0C18BF033202EBDC02C2F1CA
S31508000830200300FA03FC20FA02F001FA03FE40EA5C
S315080008400E0021FA02F11444C1E600BF70B54FF05C
S31508000850FF0C4CF4E06C1CEA11541DBF1CEA13553E
S3150800086094EA0C0F95EA0C0F00F0DEF82C4481EAA6
S31508000870030621EA4C5123EA4C5350EA013518BFC6
S3150800088052EA033541F4801143F4801338D0A0FBB3
S3150800089002CE4FF00005E1FB02E506F00042E0FB60
S315080008A003E54FF00006E1FB03569CF0000F18BF66
S315080008B04EF0010EA4F1FF04B6F5007F64F540740E
S315080008C004D25FEA4E0E6D4146EB060642EAC621A1
S315080008D041EA55514FEAC52040EA5E504FEACE2E0E
S315080008E0B4F1FD0C88BFBCF5E06F1ED8BEF1004F11
S315080008F008BF5FEA500E50F1000041EB045170BD8D
S3150800090006F0004646EA010140EA020081EA0301D0
S31508000910B4EB5C04C2BFD4EB0C0541EA045170BDCC
S3150800092041F480114FF0000E013C00F3AB8014F146
S31508000930360FDEBF002001F0004170BDC4F100048F
S31508000940203C35DA0C341BDC04F11404C4F1200510
S3150800095000FA05F320FA04F001FA05F240EA02006B
S3150800096001F0004221F0004110EBD37021FA04F6A1
S3150800097042EB06015EEA430E08BF20EAD37070BD5B
S31508000980C4F10C04C4F1200500FA04F320FA05F0BA
S3150800099001FA04F240EA020001F0004110EBD370BC
S315080009A041F100015EEA430E08BF20EAD37070BD2C
S315080009B0C4F1200500FA05F24EEA020E20FA04F305
S315080009C001FA05F243EA020321FA04F001F00041B4
S315080009D021FA04F220EA020000EBD3705EEA430E25
S315080009E008BF20EAD37070BD94F0000F0FD101F054
S315080009F00046400041EB010111F4801F08BF013C8D
S31508000A00F7D041EA060195F0000F18BF704703F0CA
S31508000A100046520043EB030313F4801F08BF013D51
S31508000A20F7D043EA0603704794EA0C0F0CEA13550D
S31508000A3018BF95EA0C0F0CD050EA410618BF52EAC7
S31508000A404306D1D181EA030101F000414FF00000CD
S31508000A5070BD50EA410606BF1046194652EA4306DB
S31508000A6019D094EA0C0F02D150EA013613D195EA4F
S31508000A700C0F05D152EA03361CBF104619460AD197
S31508000A8081EA030101F0004141F0FE4141F47001A1
S31508000A904FF0000070BD41F0FE4141F4780170BD91
S31508000AA070B54FF0FF0C4CF4E06C1CEA11541DBFF6
S31508000AB01CEA135594EA0C0F95EA0C0F00F0A7F8F8
S31508000AC0A4EB050481EA030E52EA03354FEA013125
S31508000AD000F088804FEA03334FF0805545EA131338
S31508000AE043EA12634FEA022245EA111545EA106500
S31508000AF04FEA00260EF000419D4208BF964244F197
S31508000B00FD0404F5407402D25B084FEA3202B61AB5
S31508000B1065EB03055B084FEA32024FF480104FF489
S31508000B20002CB6EB020E75EB030E22BFB61A7546FD
S31508000B3040EA0C005B084FEA3202B6EB020E75EB90
S31508000B40030E22BFB61A754640EA5C005B084FEAF8
S31508000B503202B6EB020E75EB030E22BFB61A7546C5
S31508000B6040EA9C005B084FEA3202B6EB020E75EBD0
S31508000B70030E22BFB61A754640EADC0055EA060E91
S31508000B8018D04FEA051545EA16754FEA06164FEAD4
S31508000B90C30343EA52734FEAC2025FEA1C1CC0D180
S31508000BA011F4801F0BD141EA00014FF000004FF00D
S31508000BB0004CB6E711F4801F04BF01430020B4F1CE
S31508000BC0FD0C88BFBCF5E06F3FF6AFAEB5EB030C86
S31508000BD004BFB6EB020C5FEA500C50F1000041EB83
S31508000BE0045170BD0EF0004E4EEA113114EB5C0450
S31508000BF0C2BFD4EB0C0541EA045170BD41F4801123
S31508000C004FF0000E013C90E645EA060E8DE60CEA2A
S31508000C10135594EA0C0F08BF95EA0C0F3FF43BAF47
S31508000C2094EA0C0F0AD150EA01347FF434AF95EAFE
S31508000C300C0F7FF425AF104619462CE795EA0C0FE2
S31508000C4006D152EA03353FF4FDAE1046194622E7AF
S31508000C5050EA410618BF52EA43067FF4C5AE50EA89
S31508000C6041047FF40DAF52EA43057FF4EBAE12E779
S31508000C704FF0FF3C06E000BF4FF0010C02E000BF5A
S31508000C804FF0010C4DF804CD4FEA410C7FEA6C5C3D
S31508000C904FEA430C18BF7FEA6C5C1BD001B050EAE0
S31508000CA0410C0CBF52EA430C91EA030F02BF90EACB
S31508000CB0020F0020704710F1000F91EA030F58BF8A
S31508000CC0994208BF90422CBFD8176FEAE37040F0EC
S31508000CD0010070474FEA410C7FEA6C5C02D150EA8A
S31508000CE0013C07D14FEA430C7FEA6C5CD6D152EA45
S31508000CF0033CD3D05DF8040B704700BF844610460A
S31508000D0062468C461946634600E000BF01B5FFF708
S31508000D10B7FF002848BF10F1000F01BD4DF808EDD8
S31508000D20FFF7F4FF0CBF012000205DF808FB00BFA9
S31508000D304DF808EDFFF7EAFF34BF012000205DF803
S31508000D4008FB00BF4DF808EDFFF7E0FF94BF012050
S31508000D5000205DF808FB00BF4DF808EDFFF7CEFF51
S31508000D6094BF012000205DF808FB00BF4DF808ED90
S31508000D70FFF7C4FF34BF012000205DF808FB00BF61
S31508000D804FEA410C7FEA6C5C02D150EA013C0AD179
S31508000D904FEA430C7FEA6C5C02D152EA033C02D16B
S31508000DA04FF0000070474FF0010070474FEA4102CC
S31508000DB012F5001215D211D56FF47873B3EB62529F
S31508000DC012D94FEAC12343F0004343EA505311F0C6
S31508000DD0004F23FA02F018BF404270474FF0000058
S31508000DE0704750EA013005D111F0004008BF6FF096
S31508000DF0004070474FF00000704700BF53B94AB92A
S31508000E00002908BF00281CBF4FF0FF314FF0FF3004
S31508000E1000F07EB9ADF1080C6DE904CE00F006F8D5
S31508000E20DDF804E0DDE9022304B070472DE9F04758
S31508000E308C460E460446089D002B50D18A4217461A
S31508000E406CD9B2FA82FEBEF1000F0BD0CEF12004A7
S31508000E5020FA04F401FA0EF644EA060C02FA0EF732
S31508000E6000FA0EF44FEA1749220CBCFBF9F01FFAF8
S31508000E7087F809FB10C642EA064600FB08F3B342A8
S31508000E8009D9F61900F1FF3280F02281B34240F207
S31508000E901F8102383E44F61AA2B2B6FBF9F309FBE3
S31508000EA0136642EA064403FB08F8A04509D9E41983
S31508000EB003F1FF3280F00A81A04540F20781023B28
S31508000EC03C44C8EB040443EA00400021002D62D0EC
S31508000ED024FA0EF400232C606B60BDE8F0878B4281
S31508000EE007D9002D55D0002185E841000846BDE800
S31508000EF0F087B3FA83F1002940F09080B34202D319
S31508000F00824200F2F880841A66EB03060120B44692
S31508000F10002D40D085E81010BDE8F08712B90127EA
S31508000F20B7FBF2F7B7FA87FEBEF1000F35D1F31B10
S31508000F304FEA17481FFA87FC0121B3FBF8F0220C89
S31508000F4008FB103642EA06460CFB00F3B34207D903
S31508000F50F61900F1FF3202D2B34200F2CE801046F3
S31508000F60F61AA2B2B6FBF8F308FB136642EA064481
S31508000F700CFB03FCA44507D9E41903F1FF3202D29E
S31508000F80A44500F2B5801346CCEB040443EA0040BE
S31508000F909CE729462846BDE8F087CEF1200106FAE7
S31508000FA00EF307FA0EF720FA01F94FEA1748CE4072
S31508000FB049EA0309B6FBF8FA4FEA194408FB1A6628
S31508000FC01FFA87FC44EA06430AFB0CF29A4200FA27
S31508000FD00EF40AD9DB190AF1FF3180F087809A42AC
S31508000FE040F28480AAF1020A3B449B1A1FFA89F947
S31508000FF0B3FBF8F108FB113349EA034301FB0CF68E
S315080010009E4207D9DB1901F1FF326BD29E4269D99C
S3150800101002393B449B1B41EA0A418EE7C1F1200E87
S3150800102022FA0EF48B40234320FA0EF706FA01F44F
S315080010304FEA134C26FA0EF63C43B6FBFCF9270C8E
S315080010400CFB19661FFA83F847EA064609FB08F7F8
S31508001050B74202FA01F200FA01FA08D9F61809F1BC
S31508001060FF3041D2B7423FD9A9F102091E44F61B07
S31508001070A0B2B6FBFCF40CFB146640EA064704FB78
S3150800108008F8B84507D9FF1804F1FF3028D2B84543
S3150800109026D9023C1F4444EA0940C8EB0707A0FBCF
S315080010A002894F4544464E4614D329D065B3BAEB58
S315080010B0040367EB060707FA0EFECB40CF404EEA5D
S315080010C0030385E888000021BDE8F0871346F8E6A3
S315080010D01046E0E6B8EB020469EB03060138E5E7DB
S315080010E00446D8E7114695E78146C0E78A467CE775
S315080010F0023B3C4448E708460AE702383E442FE7E5
S31508001100C245E7D33E46D1E72946BDE8F08700BF8A
S31508001110704700BF70B4840746D0541E002A41D0D9
S31508001120CDB2034602E0621EE4B3144603F8015B3F
S315080011309A07F8D1032C2ED9CDB245EA05250F2CEE
S3150800114045EA054519D903F110022646103E0F2E29
S3150800115042F8105C42F80C5C42F8085C42F8045C01
S3150800116002F11002F2D8A4F1100222F00F0204F0E4
S315080011700F041032032C13440DD91E462246043A96
S31508001180032A46F8045BFAD8221F22F00302043227
S31508001190134404F003042CB1C9B21C4403F8011B20
S315080011A0A342FBD170BC704714460346C2E700BF92
S315080011B0024B13B1024800F005B870470000000062
S315080011C0D1110008002301461A46184600F014B843
S315080011D038B5074D074C2C1BA41005D0013C55F813
S315080011E0043D9847002CF9D1BDE8384007F0FABC11
S315080011F0FC8E0008F88E00082DE9F047254C256876
S31508001200D5F848410646884692469946C4B360686A
S315080012101F2817DC431C76B104EB80050122C5F8AC
S3150800122088A0D4F8881182401143022EC4F8881188
S31508001230C5F808911ED00230636044F8208000206B
S31508001240BDE8F087144B03B34FF4C870AFF30080C2
S315080012500446D0B1D5F84831002780E88800C5F89B
S31508001260484138460123C4F88871C4F88C71002EA9
S31508001270E1D0D1E7D4F88C110A43C4F88C21DAE717
S3150800128005F5A674C5F84841C1E74FF0FF30BDE83B
S31508001290F08700BFF08B00080000000003683B4998
S315080012A04FF6FE721A4088424FF000030260036050
S315080012B043608360C36027D0354B98422AD0354BAC
S315080012C098422DD0344B984230D0344B984239D07E
S315080012D0334B98423CD0334B98420FD0324B98420E
S315080012E03CD0324B98423FD0314B984242D0314B9A
S315080012F0984245D0304B98421ED070472F4A5368C3
S3150800130043F07063536070472C4A536843F00F03E9
S3150800131053607047294A536843F0F0035360704797
S31508001320264A536843F4706353607047234A5368E8
S3150800133043F4704353607047214A536843F470235B
S315080013405360DAE71D4A536843F4702353607047C5
S315080013501A4A536843F4700353607047184A53682F
S3150800136043F00F0353607047154A536843F0F00380
S3150800137053607047124A536843F47063536070476A
S315080013800F4A536843F4704353607047080002409D
S315080013901C0002403000024044000240580002404F
S315080013A06C00024080000240080402401C0402400F
S315080013B0300402404404024058040240000002403F
S315080013C000040240F0B48F680E6A0D694C698A6998
S315080013D0CB693E432E4326434D6A8C6A8F89164352
S315080013E0026833431D4322F4FF432C4323F0700362
S315080013F04A6823430C68036047608460C260F0BC97
S31508001400704700BF002303604360836083810361E4
S3150800141043618361C361036243628362704700BFAD
S3150800142029B902684FF6FE731340036070470368D4
S3150800143043F001030360704703681AB923EA010100
S315080014400160704719430160704700BFC3004CBF75
S31508001450014B024B586070470004024000000240EE
S315080014608379F0B4002B54D0036802793D4E3E4D83
S3150800147023F01F0101F1804101F5823103F01F04B9
S315080014800F68012303FA04F427EA04040C600168D0
S3150800149021F01F0701F01F01BC5903FA01F124EAE4
S315080014A00101B9510168314C02F1804221F01F0750
S315080014B002F5823201F01F01BE5803FA01F13143E9
S315080014C0B9500268417922F01F0702F01F027E59BF
S315080014D003FA02F226EA02027A51026822F01F078C
S315080014E002F01F023E5903FA02F226EA0202102906
S315080014F03A5121D0006801F1804220F01F0402F51C
S31508001500823200F01F00A15883400B43A350F0BC61
S3150800151070470379026803F1804322F01F0403F53C
S31508001520823302F01F02E158012000FA02F221EA92
S315080015300202E250F0BC7047026822F01F0602F071
S315080015401F02715903FA02F20A437251026822F025
S315080015501F0002F01F02015993400B430351F0BCD0
S31508001560704700BF04040140080401400C04014010
S3150800157000F01F01012320F01F00024A8B40835010
S31508001580704700BF14040140284A038890429BB262
S3150800159012D002F5006290420ED0B0F1804F0BD007
S315080015A0A2F59832904207D002F58062904203D0A5
S315080015B002F5A432904203D14A8823F070031343FC
S315080015C01B4A90422AD002F58062904226D00A89A8
S315080015D070B423F44073154C4E680D889BB21343C0
S315080015E0A0420380C662058512D0124B98420FD0DE
S315080015F003F5406398420BD003F58063984207D001
S3150800160003F58063984203D003F50063984201D13D
S315080016104B8903860123436170BC704703800B889E
S315080016204A68C2620385012343617047002C014062
S31508001630001000400034014041627047406A70471C
S31508001640038829B923F080031B041B0C0380704709
S315080016509BB243F080030380704700BF038829B913
S3150800166023F001031B041B0C038070479BB243F055
S3150800167001030380704700BFF0B5046A8B89B1F88F
S3150800168004E00F681C4E24F001040462046A4568ED
S31508001690826924F0020422F48032234322F0730282
S315080016A0B0424EEA030342EA070214D0134CA042A2
S315080016B011D004F54064A0420DD004F58064A04220
S315080016C009D004F58064A04205D089684560826126
S315080016D041630362F0BDCE89B1F810E0CF8823F0EC
S315080016E00803334325F440744E8A23F004034EEA74
S315080016F004053B433543E8E7002C0140003401402C
S31508001700F0B5046A8D898B880F68184E24F010048A
S315080017100462046AD0F804E0826922F0807224F038
S3150800172020042B4322F4E642B04244EA031342EA79
S31508001730072209D00E4CA04206D08968C0F804E0FA
S31508001740826181630362F0BDCD890E8A4C8A23F0DB
S31508001750800343EA0513CD882EF4406E23F0400338
S31508001760344343EA05134EEA840EE6E7002C0140AB
S3150800177000340140F0B5046AB1F80CE08B880F68B4
S31508001780104E24F480540462026A4568C46922F43F
S3150800179000524EEA030324F4E644B04242EA033315
S315080017A044EA072208D0084CA04205D0896845605B
S315080017B0C26101640362F0BD0C8A25F4804545EADE
S315080017C08415F3E7002C014000340140416370475B
S315080017D08163704701647047836923F008031943DE
S315080017E081617047836923F4006343EA01218161BB
S315080017F0704700BFC36923F4006343EA0121C1614E
S31508001800704700BF10B40123046A8B4024EA03031F
S315080018100362036A5DF8044B8A4042EA03010162E7
S31508001820704700BF436C19B9C3F30E03436470478E
S3150800183043F400434364704741617047C94389B222
S31508001840016170472AB9C368C94389B21940C160A2
S315080018507047C3681943C160704700BFFFF7F2BFFE
S3150800186082684FF6F873134083607047F0B587684F
S31508001870D0F818E0046AA4B24FF6FC4524F0220416
S3150800188022434FF6F8760EEA05053E4042EA031370
S3150800189045F4807531439AB245F00105816085614A
S315080018A00262F0BD01F10C02F0B41CCA0F684D6863
S315080018B08E683D4335432A43C66842EA03058A696A
S315080018C0074B2C43224333401343C3600A7F036B01
S315080018D0013A23F00F0313430363F0BC704700BFBC
S315080018E007C0FFFD0023012202770360436083607F
S315080018F0C360036143618361704700BFB0F1A04FC5
S31508001900F0B515D0184B984212D0184B88689D68C8
S31508001910174BCC6891E8440032432B400243097CBC
S315080019201A4342EA043343EA0123104A9360F0BD9E
S31508001930104BD1F800E04D689F688C680C4ACB685C
S315080019400E7C4EEA05013A4021430A4342EA033235
S31508001950B0F1A04F42EA062302D0034A9042E4D1EE
S31508001960044A9360F0BD00BF000100500007005014
S31508001970E010FCFF00030050836819B943F0020326
S315080019808360704743F0010383607047836843F0C0
S3150800199000438360704700BF836823F080438360F9
S315080019A083681943816070478068C00F704700BF1D
S315080019B0836823F040538360836819B943F0005362
S315080019C08360704743F0805383607047042A30B4BD
S315080019D01FD802EB42025200056B1F24944025EAE9
S315080019E0040401FA02F222430263092922D80139C2
S315080019F04269446901EB410138228A4024EA02021D
S31508001A0042614269033103FA01F11143416130BC75
S31508001A107047092A1ED8053A02EB42025200456B66
S31508001A201F24944025EA040401FA02F222430929F4
S31508001A304263DCD90A398269846901EB41010722CC
S31508001A408A4024EA0202826182698B4013438361D9
S31508001A5030BC70470E2A0DD80A3A02EB42025200F1
S31508001A60856B1F24944025EA040401FA02F22243F6
S31508001A708263BAE70F3A02EB42025200C56B1F2493
S31508001A80944025EA040401FA02F22243C263ACE751
S31508001A90836843F004038360704700BF006C80B21C
S31508001AA0704700BFC36819B923F00103C3607047C4
S31508001AB043F00103C3607047C36823F00203C360A1
S31508001AC0C3681943C160704703680B4214BF0120FD
S31508001AD0002070470368426889B211EA030003D000
S31508001AE0114214BF01200020704700BF01607047F3
S31508001AF008B51E4B984215D01D4B98421ED01D4B5B
S31508001B00984227D01C4B984200D008BD01214FF4BB
S31508001B10004000F0B7FA00214FF40040BDE8084045
S31508001B2000F0B0BA01214FF4805000F0ABFA002162
S31508001B304FF48050BDE8084000F0A4BA01214FF4E4
S31508001B40804000F0ADFA00214FF48040BDE808401F
S31508001B5000F0A6BA01214FF4004000F0A1FA0021D6
S31508001B604FF40040BDE8084000F09ABA0030014042
S31508001B7000380040003C0040003C0140F0B44F886B
S31508001B80B7F5827F23D082880B888E88CD880C890A
S31508001B9022F470621204120C3B4332432B434E89E3
S31508001BA08D8982802343CA89048833432B4304F4EE
S31508001BB04154134323439BB20380838B0A8A23F43D
S31508001BC000631B041B0C8383F0BC02827047CE881B
S31508001BD00B880C894A898F89CD89334343F48273EC
S31508001BE01C43144302888E883C432C4302F441521A
S31508001BF0224392B20280838823F470631B041B0C71
S31508001C0033438380D9E700BF038829B923F040030B
S31508001C101B041B0C038070479BB243F040030380F0
S31508001C20704700BF838823F480531B041B0C8380F2
S31508001C3083889BB219438180704700BF0173704740
S31508001C40007B70470389194214BF012000207047A2
S31508001C50034A536823F4605343EAC0005060704750
S31508001C6000100240A34B5A6802F00C02042A2DE920
S31508001C70F04100F05981082A00F042819E4901602E
S31508001C8002B100229B4E9D4C7368C3F30313E75CB5
S31508001C90FFB221FA07F343607568C5F30225655D4F
S31508001CA023FA05F58560D6F804E0CEF3C22E14F8BB
S31508001CB00EE05FFA8EFE23FA0EF3C360F66A360963
S31508001CC006F00F0C04EB4C0CF606BCF810C01FFA15
S31508001CD08CFC03D5BCF1000F40F004810161854EF0
S31508001CE0F66A760A06F00F0C04EB4C04F606248A0C
S31508001CF0A4B202D5002C40F0F98041617D4C246BDA
S31508001D00E4065CBF7C4C84617A4C48BF8161246BD5
S31508001D10A6065CBF784CC461764C48BFC161246B8B
S31508001D2064065CBF744C0462724C48BF0162266B41
S31508001D30F60502D58A4200F001816E4C4362246B97
S31508001D40E60402D58A4200F016816A4C8362246B47
S31508001D50A60502D58A4200F02981664CC362246B27
S31508001D60660502D58A4200F01681624CC364246B6C
S31508001D70260501D58A424FD05E4C0365266BB6040C
S31508001D8053D58A4200F01D810365226B8365594A43
S31508001D90146BA60711D0136B03F00303012B00F095
S31508001DA0C780136B03F00303022B00F02281136B29
S31508001DB003F00303032B01D14F4B83634D4B1A6B7F
S31508001DC012F4403F3CD1C5634A4B1A6B12F4402FBC
S31508001DD051D10564474B1A6B12F4401F65D145640F
S31508001DE0444B1A6B12F4400F79D01A6B02F4400276
S31508001DF0B2F5800F00F0BC801A6B02F44002B2F50F
S31508001E00000F00F0FA801B6B03F44003B3F5400F94
S31508001E1000F0D380BDE8F0817745ADD15600354C4A
S31508001E200665246BA40400F1D080324C0365246B4C
S31508001E302404ABD58A42A9D17745A7D14E00CAE07A
S31508001E401A6B02F44032B2F5803F00F08B801A6BB1
S31508001E5002F44032B2F5003F00F0BF801B6B03F47A
S31508001E604033B3F5403F04BF234BC363214B1A6B82
S31508001E7012F4402FADD01A6B02F44022B2F5802F2F
S31508001E805AD01A6B02F44022B2F5002F00F0AD804A
S31508001E901B6B03F44023B3F5402F04BF164B0364B2
S31508001EA0144B1A6B12F4401F99D01A6B02F44012A5
S31508001EB0B2F5801F3ED01A6B02F44012B2F5001F2D
S31508001EC000F08F801B6B03F44013B3F5401F04BF6B
S31508001ED0094B4364074B1A6B12F4400F85D185648E
S31508001EE0BDE8F081B2FBFCF60661F8E6B2FBF4F455
S31508001EF0446103E70010024000127A000000002047
S31508001F005A685C68C2F38342E70302F102012BD5E3
S31508001F10DB6A3C4A03F00F030133B2FBF3F201FB21
S31508001F2002F202601146ADE6364901600022A9E6D2
S31508001F30816343E7416453E701644BE777457FF4E0
S31508001F40FCAE4FEA420CC0F824C0D4F8308018F42E
S31508001F50805F664613D18362246BA4057FF5FDAEC8
S31508001F60664612E0C1632FE7274A02FB01F2D8E76B
S31508001F708164BDE8F08177457FF4E7AE5600234CCF
S31508001F808662246BA4057FF5E8AE204CC662246BF6
S31508001F90640504D4E9E677457FF4E7AE56001B4CA2
S31508001FA0C664246B24053FF53AAFE5E677457FF42A
S31508001FB0D4AE4FEA420C6646E7E7124B8364BDE8A7
S31508001FC0F08177457FF4E0AE4E00104A4665126B05
S31508001FD017047FF5DBAE8665D9E64FF40043C36385
S31508001FE0F2E64FF400434364FAE64FF40043036411
S31508001FF0F0E64FF400438363E0E64FF4004383645E
S31508002000BDE8F08100127A0000093D000010024088
S31508002010064A030FD36A14BF23F4785323F4F873DC
S31508002020D362024AD36A1843D0627047001002404E
S3150800203029B9054A536923EA000050617047024BE3
S315080020405A691043586170470010024029B9054A79
S31508002050936923EA000090617047024B9A6910431E
S31508002060986170470010024029B9054AD36923EAE6
S315080020700000D0617047024BDA691043D861704797
S315080020800010024029B9054AD36823EA0000D06047
S315080020907047024BDA681043D86070470010024058
S315080020A029B9054A136923EA000010617047024BF3
S315080020B01A6910431861704700100240F0B50668A7
S315080020C0CB688F68D1F804C0044626F00106086973
S315080020D00D4649692660666826F4405E4EEA07079B
S315080020E0676022684CEA030622F4B05323F00C0317
S315080020F046EA000213432360A36823F440730B43A4
S3150800210099B0A36001A8FFF7ADFD174B9C4224D0F8
S31508002110164B9C4223D0164B9C4222D0154B9C4210
S315080021200CBF129A139A23682968180448BF5200EC
S31508002130B2FBF1F301FB1322B2EB510F226828BF61
S315080021400133120405D54FF6F0721A40C3F3420361
S3150800215013439BB2A38119B0F0BD0F9AE3E7109A17
S31508002160E1E7119ADFE700BF00380140004400406C
S3150800217000480040004C0040036819B923F00103E9
S315080021800360704743F0010303607047C3690B425D
S3150800219014BF012000207047C3785BB9037817483D
S315080021A05A09203203F01F03012101FA03F340F80C
S315080021B022307047F0B4124B8278D9684678047892
S315080021C00E4DC943C1F302210F23C1F10407CB40C9
S315080021D0BE401340334304F1604202F561421B01DD
S315080021E0DBB282F800330378012203F01F015B0992
S315080021F08A4045F82320F0BC704700BF00E100E0A4
S3150800220000ED00E001F0FC0303F1804303F58033A1
S3150800221001F0030110B489009C680F228A4024EA61
S3150800222002029A609A685DF8044B884010439860E9
S31508002230704700BF00222DE9F04713460F680126B4
S315080022404FF0030E04E00133102B02F1020227D0EF
S3150800225006FA03F434EA0705F5D191F804C00CF13F
S31508002260FF35012D0EFA02F51CD9ED43D0F8008092
S31508002270CC7908EA05050560D0F800800CFA02F565
S3150800228045EA08050560C5680EFA02FC944025EA89
S315080022900C0501332C43102BC46002F10202D7D17E
S315080022A0BDE8F087D0F808A091F8058091F8069067
S315080022B00EFA02F5ED430AEA050AC0F808A0D0F8B6
S315080022C008A008FA02F848EA0A08C0F80880B0F830
S315080022D004801FFA88F828EA04048480B0F8048089
S315080022E009FA03F444EA0804A4B28480BEE700BFEE
S315080022F000234FF6FF710222016042710371837158
S31508002300C371704781617047018570470AB90185B5
S3150800231070478161704700BF81827047CB0800EB28
S31508002320830001F0070110B48900046A0F238B406B
S3150800233024EA03030362036A5DF8044B8A4042EA0F
S3150800234003010162704700BFF0B44A680F688C68E1
S315080023500B69CD68074E3A4322431A434C698359A1
S3150800236089692A4322430A4303F00303134383512B
S31508002370F0BC70471C000140054A835819B923F080
S3150800238001038350704743F001038350704700BF31
S315080023901C00014010B43E4C3E4BD4F888003E4A1F
S315080023A03E4940F47000C4F88800186840F00100FF
S315080023B01860586802405A601A6822F0847222F43B
S315080023C080321A601A6822F480221A605A6822F447
S315080023D0FE025A60DA6A22F00F02DA62186B83B0DC
S315080023E00022014019639A60009201921A6842F429
S315080023F080321A601A4603E0009BB3F5A04F09D055
S31508002400136803F400330193009B01330093019B87
S31508002410002BF1D01F4B1B6813F4003318BF0123A0
S315080024200193019B012B07D0194B4FF000629A606C
S3150800243003B05DF8044B7047194A164B1221116018
S315080024405A685A605A685A605A6842F480625A60F2
S315080024505A6822F47C125A605A6842F4E8125A60A2
S315080024601A6842F080721A601A461168094B890187
S31508002470FBD55A6822F003025A605A6842F00202F3
S315080024805A601A46536803F00C03082BFAD1CBE7B7
S3150800249000ED00E0001002400CC07FF8CCFC00FF05
S315080024A000200240002103E00A4B5B5843500431E8
S315080024B009480A4B42189A42F6D3094A02E0002311
S315080024C042F8043B074B9A42F9D3FFF763FF00F043
S315080024D0B7FB7047FC8E000800000020FC090020AE
S315080024E0FC090020200B0020FEE7000008B5024882
S315080024F002F01CF8002008BDF48B000870B5012115
S3150800250082B0124D4FF40010FFF792FD6846FFF7B0
S31508002510EFFE002402236946284601220C268DF880
S3150800252005308DF8042000968DF806408DF8074092
S31508002530FFF780FE224628460421FFF7E7FE2246DB
S3150800254028460821FFF7E2FE02B070BD00100048D9
S3150800255030B5012183B04FF48800FFF769FD0124E7
S315080025604FF4007300256946114800938DF804500E
S315080025708DF807508DF806408DF80540FFF75AFE8E
S3150800258069460C488DF804408DF8065000948DF87D
S3150800259007508DF80540FFF74DFE21462046FFF708
S315080025A055FD09210520FFF72DFE03B030BD00BFFC
S315080025B0001400480004004810B5012184B00846FC
S315080025C0FFF752FD002444F24F62472301A94FF05A
S315080025D080400292ADF80430ADF80E40ADF80C40DC
S315080025E0ADF80640FEF7D0FF21464FF08040FFF7D2
S315080025F023F804B010BD00BF2DE9F04F01218BB0C0
S315080026000AAD0846FFF722FD802345F8243D00243D
S315080026104FF00308DFF8E0918DF8088001214FF4A8
S3150800262000308DF80B40FFF703FD29464FF0904028
S31508002630FFF700FE4FF0020A082248464FF40076DC
S31508002640092101968DF80A408DF80B408DF808A0EF
S31508002650FFF764FE294648460426FFF7EBFD2046A9
S31508002660FFF7F6FA4FF0300B4FF48033304603A9E4
S31508002670089304940594079406940996CDF80CB02B
S31508002680FFF762FE30460121FFF776FE0121084674
S31508002690FFF7DCFC564F8DF808804FF48042012185
S315080026A04FF4C02001928DF80B40FFF7C1FC294674
S315080026B04846FFF7BFFD07224FF4807338460821C6
S315080026C001938DF808A08DF80A408DF80B40FFF7A6
S315080026D025FE29463846FFF7ADFD2046FFF7B8FA2E
S315080026E04FF4803303A908200893CDF80CB004945E
S315080026F00996059407940694FFF726FE01210820FB
S31508002700FFF73AFE01210846FFF7A0FC80230121C6
S315080027104FF4101001938DF808808DF80B40FFF7E1
S3150800272087FC29463348FFF785FD082248460121DC
S315080027308DF808A08DF80A408DF80B40CDF804A056
S31508002740FFF7ECFD29464846FFF774FD2046FFF7DC
S315080027507FFA802303A904930C204FF4803308934F
S31508002760CDF80CB00996059407940694FFF7ECFD8E
S3150800277001210C20FFF700FE01210846FFF766FC41
S3150800278001214FF400208DF808808DF80B40CDF814
S3150800279004A0FFF74DFC29463846FFF74BFD424695
S315080027A0514638468DF808A08DF80A408DF80B403A
S315080027B00196FFF7B3FD29463846FFF73BFD20464D
S315080027C0FFF746FA802303A9049318204FF48033B1
S315080027D00893CDF80CB00996059407940694FFF76C
S315080027E0B3FD01211820FFF7C7FD0BB0BDE8F08F38
S315080027F000080048001000480004004830B5FA24D4
S3150800280085B000250222282103A800F0D9FB9DF8EF
S315080028100D209DF80C30013C43EA022305FA83F5A6
S31508002820F0D107EE905ADFED076AF8EEE77A87EE01
S31508002830A67AFDEEC77ACDED017ABDF9040005B09A
S3150800284030BD00BF00007A4370B586B006A80823DD
S31508002850002400F8143D07238DF806308DF807404C
S315080028608DF808408DF809408DF80A408DF8054026
S3150800287000F0CCFAFFF7C2FF194B1A4A1A4E186035
S3150800288001251A230021684611608DF800308DF85D
S3150800289001408DF802408DF80350FFF77DFC29466C
S315080028A04FF48020FFF7D2FB41F61F43304640F233
S315080028B08F1203A9ADF80C300492ADF81640ADF8A6
S315080028C01440ADF80E40FEF75FFE2A46294630460C
S315080028D0FEF7C4FF29463046FEF7C0FE06B070BDB7
S315080028E0100B0020000B002000480140F0B54FF403
S315080028F088709DB0FFF78CFB01214FF08050FFF7E1
S3150800290097FB01214FF40030FFF792FB02A8FFF76F
S31508002910EFFC00240C22032302A94FF090400292F8
S315080029208DF80C308DF80F40FFF784FC09A8FEF7E8
S31508002930D9FF01214FF0A040FFF73AF84FF0A04029
S315080029402146FFF729F84FF0A040FFF71FF84FF090
S31508002950A040FFF729F804460028F8D14FF40042B2
S3150800296002250F2304A94FF0A04006928DF82030C7
S31508002970049405940795FEF7C1FF4FF4005309A97F
S315080029804FF0A04009938DF840500A940B940C948C
S315080029900D940E940F94FEF785FF07230122032159
S315080029A04FF0A040FFF712F804214FF0A0402A4646
S315080029B00723FFF70BF801214FF0A040FEF7DCFFD5
S315080029C001214FF0A040FFF77FF80028F8D04FF01C
S315080029D0A040FFF75DF801210846FFF729FB11A87B
S315080029E0FEF710FD2048FEF759FC204B1193204AAC
S315080029F0129280230026022511A9202216931A482E
S31508002A0019924FF400534FF400774FF4006418946A
S31508002A101A930124139615961B96ADF850501797DE
S31508002A20FEF7D0FC0B2301A88DF804308DF805506D
S31508002A308DF806608DF80740FFF7AEFB224629465B
S31508002A400948FEF7F9FC21460748FEF7E9FC29463E
S31508002A504FF0A040FFF730F821464FF0A040FFF7AF
S31508002A6021F81DB0F0BD00BF08000240400000502C
S31508002A70140B0020F0B54FF488709DB0FFF7C8FA24
S31508002A8001214FF08050FFF7D3FA01214FF460205F
S31508002A90FFF7CEFA02A8FFF72BFC03251023002424
S31508002AA002A94FF0904002938DF80C508DF80D5006
S31508002AB08DF80F40FFF7BEFB02A8FFF719FC0423A9
S31508002AC002A9594802938DF80C508DF80F40FFF76C
S31508002AD0B1FB02A8FFF70CFC302302A95348029366
S31508002AE08DF80C508DF80F40FFF7A4FB09A8FEF7E8
S31508002AF0F9FE01214E48FEF75BFF4D482146FEF7D9
S31508002B004BFF4B48FEF742FF4948FEF74DFF044688
S31508002B100028F9D14FF400420F23022604A944489D
S31508002B2006928DF820300425049405940796FEF73E
S31508002B30E5FE4FF4005309A93D4809930A940B94FE
S31508002B400C940D940E940F948DF84050FEF7AAFE3F
S31508002B500122114607233648FEF738FF3246072377
S31508002B6005213348FEF732FF072303220B2130489D
S31508002B70FEF72CFF0C212E482A460723FEF726FFD0
S31508002B8001212B48FEF7F8FE01212948FEF79CFF94
S31508002B900028F9D02648FEF77BFF01210220FFF71F
S31508002BA047FA11A8FEF72EFC2248FEF777FB224BC0
S31508002BB01193224A12920423002511A92022ADF866
S31508002BC050301C4819924FF4005380274FF4007672
S31508002BD04FF4006417961894022601241A93139545
S31508002BE015951B951697FEF7EDFB382301A88DF86A
S31508002BF004308DF806508DF805608DF80740FFF70C
S31508002C00CBFA224631460B48FEF716FC2146094800
S31508002C10FEF706FC31460648FEF74EFF21460448F5
S31508002C20FEF740FF1DB0F0BD00040048000800484C
S31508002C30000100500804024040010050B40A002078
S31508002C40F8B5314C314DFFF7A5FB00F01BFC4FF0F2
S31508002C50FF33236000F064FC2D4900220A602260DD
S31508002C60134610464A6045F823000133072B4FF0F8
S31508002C700004F8D12749284A284B294D29480C70C1
S31508002C8014601C602C7001F071FA2748274F284EF3
S31508002C90284D01F06BFAFFF731FC4FF4FA6000F0AB
S31508002CA0ABFA4FF4FA6000F013FB322000F07AFB1F
S31508002CB001F08EF901F0DAF91F4A204B14601C70F6
S31508002CC0FFF714FEFFF7D6FE01F01EFAFFF740FCE9
S31508002CD0FFF772FCFFF7B8FDFFF78EFC1848194A94
S31508002CE019490460002313601848194A0B604FF00D
S31508002CF07E513B6033602B600360116000F010FC6E
S31508002D00144B1C60FEE700BFD40A0020B40A00205A
S31508002D10140B0020E00A0020F00A0020DC0A00203C
S31508002D20C80A0020800A0020540A0020FC0A002055
S31508002D30A80A0020EC0A0020B00A0020AC0A0020ED
S31508002D400C0B0020F40A0020E80A0020040B0020DF
S31508002D50D00A0020CC0A002038B5154C4FF4805311
S31508002D600546236003E023685A1E2260E3B1022168
S31508002D701048FEF767FF0028F5D029460D48FEF7EC
S31508002D805DFF4FF48053236003E023685A1E2260D8
S31508002D9053B101210748FEF755FF0028F5D005482D
S31508002DA0BDE83840FEF74CBFFFF7A0FBC0B238BD00
S31508002DB04C00002000300140012A70B504460E463A
S31508002DC015464FF00801104815D9FFF79DFA46F049
S31508002DD04000FFF7C1FF013DADB20135254414F8A7
S31508002DE0010BFFF7B9FFAC42F9D108210648BDE847
S31508002DF07040FFF787BAFFF787FA3046FFF7ACFF50
S31508002E00002DE8D1F1E700BF001000482DE9F04F8A
S31508002E108BB00024064601214FF480508DF80A40F5
S31508002E208DF80B40FFF712F901214FF40030FFF738
S31508002E30FFF801214FF40010FFF7FAF801214FF4CB
S31508002E400010FFF7F5F801214FF40010FFF7F0F82E
S31508002E50052211464FF090400AADFFF75FFA0522AA
S31508002E6006214FF09040FFF759FA4FF02009052246
S31508002E7007214FF09040FFF751FA45F81C9D4FF097
S31508002E80030A4FF0020B29464FF090404A4F8DF83F
S31508002E9012408DF813408DF810B08DF811A0FFF789
S31508002EA0C9F9294680234FF090400393FFF7C2F9EA
S31508002EB0294640234FF090400393FFF7BBF9384665
S31508002EC0FEF716FE4FF4E0624FF400731021384601
S31508002ED0ADF81820ADF81E3007224FF48273ADF80E
S31508002EE0201005A9ADF82420DFF8D080ADF81630FB
S31508002EF0ADF81440ADF81A40ADF81C40ADF82240C4
S31508002F00FEF73CFE38464FF48051FEF78BFE3846F6
S31508002F100121FEF779FE01270823294640468DF848
S31508002F201240039301938DF811A08DF81070FFF7E6
S31508002F3081F9019B40461946FFF7E4F929464046C0
S31508002F408DF810408DF812408DF813408DF811A0B9
S31508002F500397FFF76FF929464046CDF80CB0FFF7FF
S31508002F6069F996F80080747896F802E096F804C035
S31508002F707379B179F5789DF80A009DF80B2048EA2F
S31508002F80040444EA0E044CEA03032C430B4313439C
S31508002F90494604433A460DF10A008DF80B308DF880
S31508002FA00A40FFF709FF3A4623210DF10B00FFF708
S31508002FB003FF0BB0BDE8F08F003001400010004859
S31508002FC0012A70B504460E4615464FF00801114809
S31508002FD016D9FFF799F946F0C000FFF7BDFE013D87
S31508002FE0ADB2013525440020FFF7B6FE04F8010B03
S31508002FF0AC42F8D108210748BDE87040FFF782B90E
S31508003000FFF782F946F08000FFF7A6FE002DE6D10D
S31508003010F0E700BF001000480848D0ED0B7AF8EE3C
S31508003020677A82B027EE800AFCEEC07ACDED017A87
S31508003030BDF8041002B0FEF7C9BB00BF000400408B
S315080030400848D0ED0B7AF8EE677A82B027EE800A48
S31508003050FCEEC07ACDED017ABDF8041002B0FEF799
S31508003060B7BB00BF000400400848D0ED0B7AF8EE65
S31508003070677A82B027EE800AFCEEC07ACDED017A37
S31508003080BDF8041002B0FEF7A5BB00BF002C014036
S3150800309007EE900ADFED576AB8EEE77A2DE9F04FAA
S315080030A0C6EE877A83B000AFEB463A607960FDEEEC
S315080030B0E77A17EE900A17EE905AFDF761FB41EC96
S315080030C0100B01F0FBF851EC100BFDF76FFE8300B7
S315080030D00A3323F00703ADEB030D0028EC4656DD53
S315080030E0ADF1040200230133984242F8043FFAD1B5
S315080030F0012825DDE2464FF002095AF8044F631C01
S315080031004FF0FF3618D048454A4617DD514651F864
S31508003110043FB3F1FF3F02F1010205D093FBF4FE31
S3150800312004FB1E3303B90E609042F0D15AF8044FDF
S31508003130631C09F10109E6D14845F7DC002826DDBC
S3150800314000214FF0FF3403E08846013188421EDD36
S315080031505CF821300133F7D18842F6DD0B460CEBDB
S31508003160830201339842F0DD5668B6F1FF3FF6D088
S3150800317008F101081946431C4CF8286054600CEB0A
S31508003180830201339842EFDC01318842E0DC012DED
S315080031902BDD0CF10409DCF804C04FF00108012806
S315080031A0FDDDBCF1FF3F6346F9D04E46012205E03E
S315080031B09042F4D056F8043F591CF0D095FBF3F131
S315080031C003FB11540132002CF2D1B1F5803F0D46B4
S315080031D003FB08F8ECDA7B6819603B680C37C3F820
S315080031E00080DD46BD46BDE8F08F0C37DD46BD469E
S315080031F0BDE8F08F4054894C2DE9F0418CB00CAAFB
S31508003200002642F82C6D69460096FFF741FF019AA1
S31508003210BDF80030DFF8B480ADF812600125013A38
S31508003220013B41F6FF7002272946ADF810200593A9
S3150800323010220323099060244FF480208DF80D3066
S3150800324007940292ADF81860ADF81A60ADF82860D8
S315080032508DF80E60ADF820508DF80F508DF80C7073
S31508003260FEF7E6FE3A4640460421FFF757F8164CA5
S31508003270404602A9FEF7DEFF29463846FEF7F4FE69
S315080032802046FEF7EDFA204604A9FEF77DF920460A
S3150800329007A9FEF7F1F920460821FEF79DFA294607
S315080032A02046FEF7CDF92A4631462046FEF7AAFA09
S315080032B029462046FEF7D2F929462046FEF7BCFAEB
S315080032C00CB0BDE8F08100BF0004004000040048CF
S315080032D0F0B58DB00CAA002442F82C4D694600942E
S315080032E0FFF7D6FE019ABDF800302C4FADF8124014
S315080032F00125013A013B602041F6FF7E0226294658
S31508003300ADF8102005932022032307904FF4802060
S31508003310CDF824E08DF80D30ADF81840ADF81A4018
S31508003320ADF828408DF80E400292ADF820508DF881
S315080033300F508DF80C60FEF77BFE324638460521A5
S31508003340FEF7ECFF164C384602A9FEF773FF29462E
S315080033503046FEF789FE2046FEF782FA204604A983
S31508003360FEF712F9204607A9FEF7CAF920460821F2
S31508003370FEF738FA29462046FEF762F92A4620461D
S315080033800421FEF73FFA29462046FEF767F9294643
S315080033902046FEF751FA0DB0F0BD00BF0004004804
S315080033A000040040F0B58DB00CAA002442F82C4D5C
S315080033B069460094FFF76CFE019ABDF800302F4E5F
S315080033C0ADF812400125501E013B4FF0600E29460C
S315080033D0ADF81840ADF81A40ADF828408DF80E4003
S315080033E08DF80F40ADF8100002244FF4804241F6E4
S315080033F0FF774FF400100593CDF81CE08DF80C40CC
S315080034000292ADF820508DF80D500997FEF710FE80
S31508003410224630460E21FEF781FF194C304602A996
S31508003420FEF708FF29464FF40060FEF70FFE204618
S31508003430FEF716FA204604A9FEF7A6F8204607A9BD
S31508003440FEF798F920460821FEF7D4F929462046C2
S31508003450FEF7F6F829462046FEF7E4F92A462046FE
S315080034600C21FEF7CFF929462046FEF7F7F829463C
S315080034702046FEF7E1F90DB0F0BD00BF0010004888
S31508003480002C0140F0B589B00023032201214FF436
S3150800349080404FF4E1370C264FF4C06502240793A9
S315080034A00593049303938DF806308DF807308DF84D
S315080034B005200297069600958DF80440FEF7C6FD8E
S315080034C001214FF40030FEF7B3FD072209214FF022
S315080034D09040FEF723FF07220A214FF09040FEF79F
S315080034E01DFF69464FF09040FEF7A4FE02A90B485F
S315080034F0FEF7E4FD01210948FEF73EFE4FF4800180
S315080035000648FEF743FE0028F8D04FF4001103489A
S31508003510FEF73CFE0028F8D009B0F0BD003801409F
S3150800352070B5012186B04FF40010FEF781FD012425
S31508003530002501A94FF43F4202231D481D4E019262
S315080035408DF809308DF808408DF80B508DF80A5023
S31508003550FEF770FE3622062368468DF800208DF8A1
S3150800356001308DF802508DF80340FEF715FE21460E
S315080035701020FEF779FD41F61F43304640F28332AC
S3150800358003A9ADF80C300492ADF81650ADF81450F6
S31508003590ADF80E50FDF7F8FF224621463046FEF7F5
S315080035A05DF921463046FEF759F806B070BD00BFF2
S315080035B0001000480010004030B5012187B02D48A2
S315080035C0FEF73CF900240922082302A802928DF886
S315080035D00E408DF80C408DF80D30FDF741FF0123A4
S315080035E004A925488DF816408DF817408DF8143033
S315080035F004938DF81530FEF71DFE0A2401221146A4
S315080036001D48FEF783FE013CF8D1224601211A48DF
S31508003610FEF77CFE012504A917488DF814408DF89D
S3150800362017408DF8165004958DF81550FEF702FED2
S3150800363021464FF08040FDF7FFFF10498DF80E50E8
S31508003640092202A808230C6002928DF80D308DF825
S315080036500C40FDF705FF172301A88DF807508DF8D4
S3150800366005408DF806408DF80430FEF795FD07B045
S3150800367030BD00BF0048014000040048DC0A0020B5
S31508003680F8B501212E48FEF7D9F82E4B1B685A1CAF
S315080036902BD003B3012B32D0022B3CD0032B42D0C4
S315080036A0042B00D0F8BD284C284A23682848013343
S315080036B02360236852F823102368C3F1060352F8DF
S315080036C02330194389B2FEF727FE2368062BC4BFA9
S315080036D000232360F8BD1D4B1D4899691B681943D3
S315080036E089B2BDE8F840FEF717BE184B1848996826
S315080036F05B69194389B2BDE8F840FEF70DBE134B66
S31508003700134819685A68DB681143194389B2BDE83A
S31508003710F840FEF701BE0D4B0D481C685968DA687B
S315080037209B692143F0E7094B09481F6859689E6859
S31508003730DD681C695A699B69394331432943F0E7B7
S3150800374000100040D40A0020E40A002030000020BF
S315080037500010004808B504214FF0A040FEF7BAF95A
S31508003760012800D008BD4FF0A040FEF797F9044B9A
S31508003770042118604FF0A040BDE80840FEF7B6B92E
S315080037800C0B002008B50220FDF760FE014B012254
S315080037901A6008BDB00A002008B50348FDF756FEB2
S315080037A0024B01221A7008BD02000010AC0A002064
S315080037B038B580211848FEF78DF9F0B180211648F2
S315080037C0FEF794F9232400251348FEF767F9013C10
S315080037D00544F9D107EE905A9FED106A9FED107ACD
S315080037E0F8EEE77AC7EE866AF4EEC76AF1EE10FAE3
S315080037F011DD0C4B01221A7038BD4FF48071064852
S31508003800FEF768F938B14FF480710348FEF76EF990
S31508003810054B01221A7038BD0004005000000C4206
S3150800382000000045C80A0020E00A002070B5204DB7
S3150800383082B00920FDF79CFE2C681CB1012C1BD018
S3150800384002B070BD21464FF08040FDF7F5FE01211C
S315080038504FF08040FDF702FF012609220C23684637
S315080038608DF8044000928DF806608DF80530FDF756
S31508003870F7FD2E6002B070BD4FF08040FDF7DEFE0A
S315080038800C4B002118604FF08040FDF7E7FE00243E
S31508003890172368468DF800308DF803408DF80140EF
S315080038A08DF80240FEF778FC2C6002B070BD00BFB0
S315080038B0DC0A0020F00A0020F8B5BE4BBE4DD3ED59
S315080038C0007A9FEDBE7A2B68BD4AF8EEE77A2DEDB1
S315080038D0028BB6EE008A67EE887A012B67EE877A46
S315080038E0C2ED007A00F0B980CBB1032B00F0248139
S315080038F0052B72D0012B01D9032B0DD1B14EB24F36
S31508003900B24BB34C93ED000AFFF786FB94ED000A21
S31508003910FFF796FB33683B60BDEC028BF8BDAD48FC
S31508003920AD4B02685B68DFEDAD6ADFEDAD3AA64FD9
S31508003930DFEDAC4A97ED006A9FEDAB5A9FEDAB4AB7
S31508003940A04EDFEDAB5AAB4CAB49963B07EE103AAF
S31508003950B8EEC77AA2F6980227EE267A06EE902ADD
S31508003960F8EEE66AF4EEE57AA6EEA37AF1EE10FA38
S3150800397037EE466AC7EE046A26EE246A86ED007AB2
S3150800398086EE057A84ED006A36EE877A81ED007A4E
S315080039903CD4C368B3F5FA6F38D8984BB4EEC87AF6
S315080039A00022F1EE10FA1A6040F37581884CDFEDBB
S315080039B0947A864B81ED008AC4ED007A00221A605B
S315080039C0B7EE007AF4EEC77AF1EE10FA40F3D58036
S315080039D02B6884ED007A052B8CD18A4B93ED007AFF
S315080039E0F7EE087AB4EEE77AF1EE10FA94DDB6EE61
S315080039F0000AFFF711FBB6EE000AFFF721FB0123C9
S31508003A002B60704E704F714B714C7BE77B4B9FED73
S31508003A107E7A9FED7E6ADFED7E6A81ED007A4FF051
S31508003A207C521A60D3ED007A36EE476A36EEC77ACC
S31508003A3076EE676A77EE677AB7EE007A634B644C80
S31508003A40C3ED006AF4EEC76AF1EE10FAC4ED007A27
S31508003A5040F32F8183ED007AB2E75F4B5D4A1B681E
S31508003A609268584E9B1A07EE903AF8EEE77ABBEE44
S31508003A70047AF4EEC77AF1EE10FAC6ED007A06DD9E
S31508003A80B3EE047AF4EEC77AF1EE10FA7ED44E4F0E
S31508003A90604B97ED007A9FED534A9FED5F5A93ED81
S31508003AA0006ADFED5E3ADFED5E4A5248524A5349F4
S31508003AB0DFED555A37EEC77AC7EEA36A27EE047AC2
S31508003AC0A7EEA46AC7EE057AB6EE005A76EEA77A8E
S31508003AD080ED007AF4EEC57AF1EE10FAC2ED007ABE
S31508003AE083ED006AC1ED005A15DD384B384C82ED7E
S31508003AF0005AC3ED005AC4ED005AF0EE657AB7EEE7
S31508003B00007AF4EEC77AF1EE10FA40F3DE804FF051
S31508003B107E522260F6E6BEEE007AF4EEC77AF1EE41
S31508003B2010FA40F1DB80294B294C82ED007A4FF0E0
S31508003B307E521A602260E5E6264EB26840F20D23F0
S31508003B409A4203D8244A12689A422AD91F4B204C13
S31508003B504FF07C521A6022602A4C324BD4ED007A20
S31508003B6093ED007A77EEC77AB2EE047AF4EEC77A66
S31508003B70F1EE10FA5ADC2B68BCE6F5EEC07AF1EEE7
S31508003B8010FA4FF0000375D42B68B1E6B0EE480A78
S31508003B90FFF742FAB0EE480AFFF752FA02232B6003
S31508003BA0BAE60A4B0A4C83ED008A042384ED008AA0
S31508003BB02B60D1E7F00A0020D40A0020821C943A30
S31508003BC0D00A0020E80A0020FC0A0020D80A0020B3
S31508003BD0C40A0020B40A0020140B00206666E63EDC
S31508003BE0CDCC0C3FCDCCCC3C0080684500401C4574
S31508003BF014AEC73EA80A0020F40A0020EC0A0020EA
S31508003C003433B33E7C0A0020000000003333333FD0
S31508003C109A99993E040B002000C0504400805445F0
S31508003C20ACC52738F80A0020CDCC4C3DB6EE000AC4
S31508003C30FFF7F2F9B6EE000AFFF702FA1FED060AD9
S31508003C40FFF712FAB26840F20D239A4203D8354AB2
S31508003C5012689A4211D99FED348AB0EE480AFFF7E6
S31508003C60DBF99FED320AFFF7EBF9052384ED008AAD
S31508003C702B6051E623602B683AE6B6EE000AFFF79A
S31508003C80CBF9B6EE000AFFF7DBF9294A002104232F
S31508003C9011602B6040E6BEEE006AB4EEC67AF1EE1D
S31508003CA010FA0DD5DFED236ADFED237A81ED006A80
S31508003CB0C2E6F5EEC06AF1EE10FA7FF581AE7DE652
S31508003CC09FED1E6ADFED196AACE6F5EEC07AF1EEF5
S31508003CD010FA7FF517AE0022226013E675EE677AB2
S31508003CE0B7EE007A164B174CC3ED007AF4EEC77A96
S31508003CF0F1EE10FAC4ED007A05DD4FF07E5283ED41
S31508003D00007A2260FEE5F5EEC07AF1EE10FA7FF54C
S31508003D10F6AEF4EEC77AF1EE10FAC3ED005ADADD24
S31508003D20F5E600BF140B0020000000009A99593FE1
S31508003D30EC0A00206666263FCDCCAC3F9899193E22
S31508003D40D80A0020C40A0020F8B501212DED048BFD
S31508003D508F4C904D9048DFED919AFDF76FFD904896
S31508003D6026682F68D4ED018A95ED018AFDF766FC71
S31508003D70002106FA80F38A482360FDF75DFC236874
S31508003D8088489B1B4FF47A7606FB03F307EE903AB6
S31508003D90F8EEE77AB3EE099A87EE897A77EE687ACB
S31508003DA084ED017A67EEA97A87EE897A84ED027A3C
S31508003DB0FDF744FC002107FA80F37A482B60FDF7EB
S31508003DC03BFC2B6894F82420DB1B06FB03F607EE66
S31508003DD0906AF8EEE77A012A87EE897A77EE487ACA
S31508003DE085ED017A67EEA97A87EE897A85ED027AFA
S31508003DF018D0022A37D095F824306649012B3BD0D3
S31508003E00FFF75AFD684B1B68002B08DB674B9FEDD5
S31508003E10687AD3ED007A77EE877AC3ED007ABDEC3F
S31508003E20048BF8BDD4ED057AE36822689FED617AC4
S31508003E3094ED016ADFED606A9FED600AF8EEE77AB5
S31508003E409B1A67EE877A07EE103AB8EEC77AF0EE55
S31508003E50005AE7EE257AE6EE267AF4EEC07AF1EE17
S31508003E6010FA40F385809FED560AFFF7E9F895F8B2
S31508003E7024304849012BC3D10B68CA68DFED474A8D
S31508003E809FED4C5ADFED4D5A9A1A07EE902AB8EE76
S31508003E90E76AF3EE096AD1ED057A66EE266AB8EEA8
S31508003EA0E77AC6EEA47A37EE277ABDEEC77AF8EE39
S31508003EB0C77A67EE857AF4EEE57AF1EE10FA4DDD0B
S31508003EC040F29A23DFED3F7A6B61AB69DFED3A4A40
S31508003ED09FED375ADFED395AD31A06EE903AF8EEC7
S31508003EE0E66AB0EE007A66EEA46AE6EE077A86EE31
S31508003EF0857A77EE277AF4EEE57AF1EE10FA1DDC8C
S31508003F009FED317AAA61F4EE477AF1EE10FA02F1E2
S31508003F100A0348BFF0EE477A142B1E4C16D99FEDBC
S31508003F20277A9FED2A0A77EE877AB6EE007A67EE49
S31508003F30877A27EE800AFFF76FF861E702F10A032E
S31508003F40142BF0EE657AAA61124CE8D8B6EE000A90
S31508003F50FFF762F8002384F8243051E7DFED1A6A88
S31508003F60F4EEE67AF1EE10FAAAD481ED057AACE71A
S31508003F709FED157AF4EEC77AF1EE10FA3FF575AFB4
S31508003F8077EE807AB6EE007AA7EEC70A6DE700BF2D
S31508003F90800A0020540A00200014004000007A44D9
S31508003FA00008004000340140D40A00207C0A0020A2
S31508003FB0CDCCCC3C9A99193E8FC2353F0000C842F9
S31508003FC000000000CDCCC7420000C8C20AD7233C77
S31508003FD02DE9F041234E244D86B001214FF40020EF
S31508003FE0FEF726F80024C023022730464FF00308C0
S31508003FF001A901938DF808708DF80A408DF80B40D9
S315080040008DF80980FEF716F9304604220621FEF7D8
S3150800401085F9304604220721FEF780F901214FF47D
S315080040200050FEF713F84FF6FF763B463A464146F0
S315080040302846ADF80C40ADF81440ADF80E4004968D
S31508004040FDF714FC284603A9FDF79EFA2846012128
S31508004050FDF704FB21462846FDF7EEFA06B0BDE853
S31508004060F08100BF00080048003401402DE9F04106
S31508004070234F244D86B001214FF48010FDF7D8FF59
S31508004080002402264FF4405338464FF0030801A98E
S3150800409001938DF808608DF80A408DF80B408DF86D
S315080040A00980FEF7C7F8324638460C21FEF736F97E
S315080040B0324638460D21FEF731F901210420FDF775
S315080040C0D3FF33463246414628464FF0FF36ADF811
S315080040D00C40ADF81440ADF80E400496FDF7C6FB4B
S315080040E0284603A9FDF750FA28460121FDF7B6FA36
S315080040F021462846FDF7A0FA06B0BDE8F08100BFC4
S31508004100000C00480008004070B584B00025012462
S315080041103723154E8DF8003068468DF801508DF816
S3150800412002508DF80340FEF737F821462020FDF7A8
S315080041309BFF41F61F433046F92201A9ADF804302A
S315080041400292ADF80E50ADF80C50ADF80650FDF7DA
S315080041501BFA224621463046FDF780FB21463046AB
S31508004160FDF77CFA04B070BD00140040002300225D
S315080041704FF07C510162036080F824304361C360CC
S315080041808361426082600261C26170474FF0FF300E
S31508004190704700BF4FF400534B600020704700BFC4
S315080041A0022804D9034B09221A600020704701200F
S315080041B0704700BF1C0B00200020704710B4134C3A
S315080041C02368FBB1EFF308811A188A4215D91049FA
S315080041D0104A01F119041046D3695B06FCD511F89B
S315080041E0013B0385A142F7D10B4B5DF8044B0C222A
S315080041F01A604FF0FF3318467047226018465DF87C
S31508004200044B7047054B2360DCE700BF180A002003
S315080042103C8C0008004400401C0B0020200B0020AA
S3150800422080B9002A0DDD70B4094C8E182546E3695D
S315080042309B06FCD5AB8C01F8013BB142F7D170BCAB
S3150800424010467047034B09221A604FF0FF3070473B
S31508004250003801401C0B0020012830B418D0022871
S315080042600FD1002A0ADD124C8D182046E3695B0639
S31508004270FCD511F8013B0385A942F7D1104630BC9D
S3150800428070470C4B09224FF0FF301A6030BC70475C
S31508004290002AF3DD084C8D182046E3695B06FCD539
S315080042A011F8013B0385A942F7D11046E7E700BF9D
S315080042B0004400401C0B0020003801402DE9F04363
S315080042C02DED028B8BB055EC104B00F057F8294BAF
S315080042D0B0EE408AF0EE608A93F90060731C12D043
S315080042E022462B4620462946FCF74AFD074650B982
S315080042F04FF000084FF000092046294642464B4633
S31508004300FCF716FD40B9B0EE480AF0EE680A0BB0A5
S31508004310BDEC028BBDE8F083174B08970122CDE967
S315080043200445CDE902458DE80C00B6B142464B4638
S3150800433040464946FCF7B4FB022ECDE906010ED1EC
S3150800434000F0EEF821230360089B73B99DED060B78
S315080043500BB0BDEC028BBDE8F083CDE90689684653
S3150800436000F0DCF80028EFD1EAE700F0D9F8089B5E
S315080043700360EBE77C040020588C00082DE9F04127
S31508004380654955EC104B0E462940B14200F097801E
S31508004390002D2B4610EE102A74DD2F157FD0A7F2BC
S315080043A0FF37C3F31303F90743F4801365D403EB0C
S315080043B0D27100260B447F105200B64616204FF4E1
S315080043C000110EEB01049C424FEAD2754FEA4202F5
S315080043D003DC1B1B04EB010E0E44013805EB4303FB
S315080043E04FEA5101EDD1844620244FF0004109E0FF
S315080043F020D003EBD275013C4FEA51012B444FEA1A
S31508004400420220D09E4501EB0C05F1DA002D05EBA2
S31508004410010C09DBF0469542CEEB030300D9013BBC
S31508004420521B0844C646E4E7BCF1000FF2DB0EF166
S315080044300108F0E795421ED8002D05EB010C50DB6C
S3150800444098460023ECE7134304D0421C4DD000F0F5
S315080044500103184440087110F30701F17F5101F573
S31508004460001148BF40F0004001EB0753024643ECF9
S31508004470102BBDE8F0817346BBE75B0003EBD273F4
S31508004480520094E725F00041214328D0ADBB2F46C2
S31508004490D30A153F5205002BFAD0DD0228D4002195
S315080044A000E001465B00DC0201F10100F9D5C0F12C
S315080044B0200422FA04F423437F1A82406FE710EEA1
S315080044C0102A2B4610EE100A2946FCF7BFF9224699
S315080044D02B46FCF709F841EC100BBDE8F081BDE866
S315080044E0F081BCF1000FA2DAAAE701362046B2E74E
S315080044F020244FF0FF310020DBE710EE102A2B4670
S3150800450020462946FBF7EEFF02460B46FCF7C8FA9B
S3150800451041EC100BBDE8F0810000F07F00207047E9
S31508004520014B1868704700BF780400200FB400B527
S31508004530074983B004AB086853F8042B81680193D4
S3150800454000F00AF803B05DF804EB04B0704700BF4A
S3150800455078040020000000002DE9F04FC1B01C4689
S31508004560049116460546069002F076FE03681393F4
S315080045701846FBF745FF0A9412901DB1AB6B002B4A
S3150800458000F023810498B0F90C2093B2990407D45B
S31508004590416E42F4005321F40051838141669BB277
S315080045A01A0740F1DD80049A1269002A00F0D880C3
S315080045B003F01A030A2B00F0E1809FED877B0023A6
S315080045C08DED107B0E932593249315930793DFF8AF
S315080045D014A230AB23939946B04698F80030444667
S315080045E0EBB1252B02D11AE0252B03D014F8013F95
S315080045F0002BF9D1C8EB04058DB1249B259AC9F87F
S31508004600008001332A44072BC9F8045025922493C5
S3150800461000F3C28009F10809079B2B440793237806
S31508004620002B00F0C28000231A468DF86F30194619
S31508004630089303934FF0FF3B637804F101085D4646
S3150800464008F10108A3F12000582800F25984DFE890
S3150800465010F00F0457045704180457045704570456
S315080046605704570457046203490457045D000901B7
S3150800467057042501700370037003700370037003F9
S3150800468070037003700357045704570457045704FC
S315080046905704570457045704570480039D035704C7
S315080046A09D035704570457045704EB03570457044C
S315080046B02C01570457045704570457045501570447
S315080046C05704B402570457045704570457045704A9
S315080046D05704570457045704F5020F039D039D0317
S315080046E09D033F030F03570457044603570450031B
S315080046F0CB0064002004570428045704F203570427
S315080047005704FA0308980A9340420890039B43F01B
S315080047100403039398F8003092E70A98AB46002101
S3150800472004688DF86F10071D0398302378228B458F
S315080047308DF870304FF000058DF8712040F00203B7
S31508004740C0F2FB8320F0800343F00203039354EA8C
S3150800475005030A9700F0CC830F460D9220485DE2C8
S315080047600499069801F0C2FA002841F03D80049B9E
S315080047709B8903F01A030A2B7FF41FAF0499B1F93A
S315080047800E30002BFFF619AF23463246069801F085
S3150800479077FA41B0BDE8F08F23AA0499069803F08A
S315080047A03DFC48B90DF1C00936E7259B23B10698AB
S315080047B0049923AA03F032FC049B9B89590601F14C
S315080047C01380079841B0BDE8F08F069802F0DAFB2F
S315080047D0D8E600BFAFF3008000000000000000002C
S315080047E0948C0008608C00080D93AB46002A41F0B3
S315080047F02B82039A12F0200364D00A9F073727F00A
S315080048000703002703F10801BB450A91D3E90045D0
S315080048108DF86F70C0F2BA8622F08003039354EACB
S31508004820050300F0828330AEE20842EA4572E908E1
S3150800483004F007030D461446303354EA050206F819
S31508004840013DF1D1039AD20740F19680302B00F052
S3150800485093803022731E06F8012C30AAD21A0992C8
S315080048601E468CE098F800302A2B08F1010401F066
S31508004870C981A3F13000092898BF002501F2668195
S3150800488014F8013B05EB850500EB4505A3F130005F
S315080048900928F5D945EAE575A046D3E6039B43F012
S315080048A08003039398F80030CAE60D93AB46002AB6
S315080048B041F0D281039B43F010030393039A12F04D
S315080048C020039AD1039911F0100200F034860A9851
S315080048D08DF86F30BBF1000F046800F104074FF044
S315080048E00005C0F252860A4622F08002039254EA74
S315080048F005020A9700F019831F4694E70D93AB4605
S31508004900002A41F09981039B43F010030393039A0D
S3150800491012F0200300F0FA840A9F073727F00703EE
S31508004920002703F10801BB450A91D3E900458DF834
S315080049306F70C0F2238522F08003039354EA0503BF
S3150800494000F0BC81002D08BF0A2CC0F01B8530AED4
S31508004950204629460A220023FCF750FA303206F888
S31508004960012D2046294600230A22FCF747FA044669
S315080049700D4654EA0503EBD130AB9B1B0993099B03
S315080049805B45B8BF5B46059300230F9317B1059B9C
S3150800499001330593039B13F002030B9302D0059B87
S315080049A002330593039B13F084030C9340F0D282E1
S315080049B0089B059A9D1A002D40F3CC82102D259947
S315080049C0249AA84F27DD149648461024B946049E13
S315080049D02F46069D04E0103F102F00F1080016DD53
S315080049E00132A04B24921031072A259180E818003D
S315080049F0F1DD23AA3146284603F010FB00287FF490
S31508004A00DBAE103F102F2599249A30A8E8DC149EB7
S31508004A103D464F46814601326C18072A2594249252
S31508004A20C9F80070C9F8045000F328849DF86F701F
S31508004A3009F1080977B1249B013301340DF16F019F
S31508004A400122072B2594249389E8060000F3A08306
S31508004A5009F108090B9B6BB1249B013302341CA98D
S31508004A600222072B2594249389E8060000F39C83E9
S31508004A7009F108090C9B802B00F0D082099BC3EB37
S31508004A800B07002F33DD784A249B0B92102F22DD6B
S31508004A9022464FF0100B069D049C04E0103F102F91
S31508004AA009F1080916DD01331032072B25922493E4
S31508004AB089E8000CF2DD23AA2146284603F0AEFA5F
S31508004AC000287FF479AE103F102F259A249B0DF10C
S31508004AD0C009E8DC144601330B9A24933C44072B9F
S31508004AE0259489E8840000F3478309F10809039BA4
S31508004AF0DD0500F13182249B0999C9F8006001336C
S31508004B000C44072B2594C9F80410249300F31E833C
S31508004B1009F10809039B58073FD5089B059A9D1A72
S31508004B20002D3ADD102D249B4E4F23DD22461026FC
S31508004B30DDF818B0049C04E0103D102D09F10809B1
S31508004B4017DD0133474924931032072B259289E84C
S31508004B504200F1DD23AA2146584603F05FFA0028F1
S31508004B607FF42AAE103D102D259A249B0DF1C0091D
S31508004B70E7DC144601332C44072B25942493C9F803
S31508004B800070C9F8045008DD23AA0499069803F0B2
S31508004B9045FA00287FF410AE259C079B089A0599CC
S31508004BA08A42ACBF9B185B180793002C40F0DA8248
S31508004BB0002324930DF1C0090FE50D93AB46002A97
S31508004BC041F03680039B29489C0640F146810A9F9E
S31508004BD0073727F00703D3E9004503F108020A92CD
S31508004BE0039A12F0010700F0EB8254EA050300F07D
S31508004BF080859DF834208DF871200027039A8DF85A
S31508004C006F703023BB458DF8703042F00203C0F256
S31508004C10358722F0800343F00203039330AE23095D
S31508004C2004F00F0143EA05732A091C461546435C3E
S31508004C3006F8013D54EA0503F1D19DE60A990D935C
S31508004C400A688DF8982000230A461F468DF86F30AB
S31508004C50043201230593BB460F970A92099326AEA1
S31508004C6098E600BFB48C0008608C0008808C0008A9
S31508004C700D93AB46002A40F0E387039B9B0674D549
S31508004C800A9F073727F00707D7E9002307F1080126
S31508004C900A9114461D46002A73F10003C0F23A84AD
S31508004CA0BBF1000F9DF86F70C0F26883039B23F079
S31508004CB08003039354EA05037FF444AEBBF1000F67
S31508004CC040F008844FF0000BCDF824B030AE56E61D
S31508004CD0039B43F04003039398F80030B0E498F838
S31508004CE000306C2B00F0D085039840F0100003903C
S31508004CF0A6E4002A40F09887039B9F0640F1E284C9
S31508004D000A9A07991368CD170846043229460A9263
S31508004D10C3E9000161E40A9C236808931846002841
S31508004D20234603F10403FFF6EDAC0A9398F8003026
S31508004D3086E4A3F1300000231C4618F8013B04EB77
S31508004D40840400EB4404A3F130000928F5D908943B
S31508004D5078E40D93AB46002A40F06287039B43F044
S31508004D6010030393039B9B068AD4039BDF0600F17B
S31508004D709482039B5E0640F190820A99B1F900403D
S31508004D800431E51722462B460A9184E70D93AB4674
S31508004D90002A40F06987039B0A9F1D0707F107074A
S31508004DA040F1858427F0070393ED007B8DED107B9A
S31508004DB003F108020A92DDE9101222F00043169167
S31508004DC01793DDE916454FF0FF3220462946B54BC5
S31508004DD0FBF7D6FF002840F0EB834FF0FF32B14BCC
S31508004DE020462946FBF7AEFF002840F0E183002263
S31508004DF00023DDE91001FBF79BFF002840F04486FD
S31508004E009DF86F70A84EA94B039921F08001039174
S31508004E100D9903224FF0000B05924729D8BF1E466D
S31508004E200992CDF83CB0B1E5039B43F00803039320
S31508004E3098F8003004E40D93AB46002A3FF467ADBA
S31508004E408DF86F1063E50D93AB46002A40F008878E
S31508004E50039B97489C063FF5BAAE039BD90640F1DB
S31508004E6098830A9A1346043314680A930025B7E60A
S31508004E7098F8003000297FF4E3AB01222021FFF7E0
S31508004E80DFBB039B43F00103039398F80030FFF759
S31508004E90D7BB039B43F02003039398F80030FFF732
S31508004EA0CFBB0A9A0D93166800248DF86F40171D1C
S31508004EB0002E00F0AC85002DC0F2FD842A4621465E
S31508004EC03046FBF7ADF9002800F01686831B0993D8
S31508004ED0A34623EAE3730A970593CDF83CB09DF8F9
S31508004EE06F7053E598F8003001222B21FFF7A8BB15
S31508004EF06F480D92BBF1000F40F073815F46E1E603
S31508004F000D93002A40F0A4860D9A002A3FF44DAC72
S31508004F10002301211F4605918DF898208DF86F30E2
S31508004F209B460F93099126AE34E5BBF1000F00F0BE
S31508004F30D48500270024002575E45D4803930D9267
S31508004F4054EA05030A974FF000077FF467AE00247A
S31508004F50002563E6259C6DE50D9B652B40F3AE8029
S31508004F6000220023DDE91001FBF7D8FE002800F037
S31508004F703A81249B4F4AC9F80020013301340122A3
S31508004F80072B25942493C9F8042000F3CC8309F150
S31508004F9008091D9B0E9A934203DB039BD8077FF5EE
S31508004FA0B9AD249B1299139AC9F8002001330C4411
S31508004FB0072B2594C9F80410249300F36F8409F18C
S31508004FC008090E9B5D1E002D7FF7A4AD3A4A249B67
S31508004FD00B92102D40F3B4811026069FDDF810B011
S31508004FE005E009F10809103D102D40F3A9810133A8
S31508004FF01034072B25942493C9F800A0C9F8046037
S31508005000EFDD23AA5946384603F008F800287FF44E
S31508005010D3AB259C249B0DF1C009E4E7089B059AB0
S315080050209F1A002F7FF72AAD234A249B0B92102F35
S315080050302BDD4A462146B94610253746069C049E6E
S3150800504006E0A9F11009B9F1100F02F1080218DDFE
S3150800505001331031072B25912493C2F800A055601F
S31508005060EFDD23AA3146204602F0D8FF00287FF458
S31508005070A3ABA9F11009B9F1100F2599249B30AA01
S31508005080E6DC3E460C464F46914601330B9A24937E
S315080050903C44072B259489E8840000F32B8209F108
S315080050A00809EBE4FFFFEF7F748C0008708C00089A
S315080050B0948C0008B08C0008608C00080E9B249D18
S315080050C0012B40F3D081013501340123072D2594A6
S315080050D02495C9F80060C9F8043000F3E18109F1A4
S315080050E00809129A139BC9F8003001351444072D94
S315080050F025942495C9F8042000F3DF8109F10809ED
S3150800510000230022DDE91001FBF708FE0E9B0028AC
S3150800511040F0CC80013B013501361C44072D24950F
S315080051202594C9F80060C9F8043000F3AC8109F188
S315080051300809159AC9F80420013514441FAB072D30
S3150800514025942495C9F800307FF7E2AC23AA049980
S31508005150069802F063FF00287FF42EAB259C0DF11C
S31508005160C009D7E423AA0499069802F057FF002835
S315080051703FF41EADFFF720BB23AA0499069802F058
S315080051804DFF00287FF418AB259C0DF1C009AEE44D
S3150800519023AA0499069802F041FF00287FF40CAB75
S315080051A0259C0DF1C00955E423AA0499069802F036
S315080051B035FF00287FF400AB259C0DF1C00959E4A2
S315080051C0BBF1000F8DF86F70C0F20B8322F08003DD
S315080051D0039354EA05037FF421ADBBF1000F3FF4B6
S315080051E08DAE0027B3E61D9D002D40F3A8820F9BC8
S315080051F00E9A9342A8BF1346002B1D460DDD249B2D
S31508005200C9F8006001332C44072B2594C9F80450CB
S31508005210249300F3828309F108090F9B002DA8BF88
S315080052205B1B002B1D4640F3BE80B94A249B0B929C
S31508005230102D40F36B8222461027DDF818B0049C27
S3150800524005E009F10809103D102D40F35E8201338F
S315080052501032072B25922493C9F800A0C9F80470C8
S31508005260EFDD23AA2146584602F0D8FE00287FF42F
S31508005270A3AA259A249B0DF1C009E4E723AA049959
S31508005280069802F0CBFE00287FF496AA9DF86F7068
S31508005290259C0DF1C009FFF7CDBB0A9A1468134681
S315080052A00433E5170A9322462B46F4E45E1E002EC5
S315080052B07FF73FAF964B0B93102E40F31081CDF836
S315080052C024801027B046DDF818B0049E07E009F1DF
S315080052D00809A8F11008B8F1100F40F3FD80013550
S315080052E01034072D25942495C9F800A0C9F8047030
S315080052F0EDDD23AA3146584602F090FE00287FF4D9
S315080053005BAA259C249D0DF1C009E2E7039911F0DB
S31508005310100220D00A988DF86F30BBF1000F046890
S3150800532000F104074FF0000526DB0A4622F080024A
S31508005330039254EA05020A971F467FF403ABBDE4BD
S3150800534001330B9A24932C44072B259489E82400CF
S315080053507FF7DEABFAE6039911F0400340F0488286
S315080053600A998DF86F30BBF1000F0C6801F104073C
S315080053704FF0000580F21A810A971F4654EA050382
S315080053807FF4E0AA40AE303406F8414DFFF7F4BA90
S3150800539023AA0499069802F041FE00287FF40CAA75
S315080053A0259C0DF1C0090F9A1D9B324417460E9A8B
S315080053B0934247DB039AD20744D40E990E44F51B51
S315080053C0CB1A9D42A8BF1D46002D2E460DDD249AF8
S315080053D0C9F8007001322C44072A2594C9F80450EC
S315080053E0249200F32B8309F10809002EACBF9D1BFC
S315080053F01D46002D7FF78EAB454A249B0B92102D38
S315080054009EDD1026069FDDF810B004E009F10809B4
S31508005410103D102D94DD01331034072B2594249369
S31508005420C9F800A0C9F80460F0DD23AA5946384631
S3150800543002F0F4FD00287FF4BFA9259C249B0DF1FA
S31508005440C009E5E7249A12981399C9F800100132A1
S315080054500444072A2594C9F80400249200F3CA8252
S3150800546009F10809A9E7039BDF073FF52CAE0135CB
S3150800547001340123072D25942495C9F80060C9F83D
S3150800548004307FF754AE23AA0499069802F0C6FDA5
S3150800549000287FF491A9259C249D0DF1C00948E6B2
S315080054A023AA0499069802F0B9FD00287FF484A976
S315080054B0259C249D0DF1C00913E623AA0499069894
S315080054C002F0ACFD00287FF477A9259C249D0DF1F8
S315080054D0C00915E6002455E74646DDF824800B9BEF
S315080054E001353444072D2594249589E848007FF72B
S315080054F01EAEC8E723AA0499069802F08FFD002875
S315080055007FF45AA9259C0DF1C009FFF7B7BA00BF69
S31508005510608C000864424FF02D0765EB4505BBF12A
S31508005520000F8DF86F70FFF60DAA039B23F080031A
